{
  "_format": "hh-sol-artifact-1",
  "contractName": "StringUtils",
  "sourceName": "contracts/StringUtils.sol",
  "abi": [
    {
      "inputs": [
        {
          "internalType": "string",
          "name": "_a",
          "type": "string"
        },
        {
          "internalType": "string",
          "name": "_b",
          "type": "string"
        }
      ],
      "name": "compare",
      "outputs": [
        {
          "internalType": "int256",
          "name": "",
          "type": "int256"
        }
      ],
      "stateMutability": "pure",
      "type": "function"
    },
    {
      "inputs": [
        {
          "internalType": "string",
          "name": "_a",
          "type": "string"
        },
        {
          "internalType": "string",
          "name": "_b",
          "type": "string"
        }
      ],
      "name": "equal",
      "outputs": [
        {
          "internalType": "bool",
          "name": "",
          "type": "bool"
        }
      ],
      "stateMutability": "pure",
      "type": "function"
    },
    {
      "inputs": [
        {
          "internalType": "string",
          "name": "_haystack",
          "type": "string"
        },
        {
          "internalType": "string",
          "name": "_needle",
          "type": "string"
        }
      ],
      "name": "indexOf",
      "outputs": [
        {
          "internalType": "int256",
          "name": "",
          "type": "int256"
        }
      ],
      "stateMutability": "pure",
      "type": "function"
    }
  ],
  "bytecode": "0x6104e0610039600b82828239805160001a607314602c57634e487b7160e01b600052600060045260246000fd5b30600052607381538281f3fe730000000000000000000000000000000000000000301460806040526004361061004b5760003560e01c80633a96fdd71461005057806346bdca9a146100765780638a0807b714610099575b600080fd5b61006361005e3660046103e9565b6100ac565b6040519081526020015b60405180910390f35b6100896100843660046103e9565b6101c9565b604051901515815260200161006d565b6100636100a73660046103e9565b6101dd565b8151815160009184918491908111156100c3575080515b60005b8181101561018d578281815181106100e0576100e0610452565b602001015160f81c60f81b6001600160f81b03191684828151811061010757610107610452565b01602001516001600160f81b031916101561012a576000199450505050506101c3565b82818151811061013c5761013c610452565b602001015160f81c60f81b6001600160f81b03191684828151811061016357610163610452565b01602001516001600160f81b03191611156101855760019450505050506101c3565b6001016100c6565b508151835110156101a55760001993505050506101c3565b8151835111156101bb57600193505050506101c3565b600093505050505b92915050565b60006101d583836100ac565b159392505050565b815160009083908390600111806101f5575060018151105b80610201575081518151115b1561021257600019925050506101c3565b6fffffffffffffffffffffffffffffffff8251111561023757600019925050506101c3565b6000805b8351811015610336578260008151811061025757610257610452565b602001015160f81c60f81b6001600160f81b03191684828151811061027e5761027e610452565b01602001516001600160f81b0319160361032e57600191505b8251821080156102b0575083516102ae838361047e565b105b801561030457508282815181106102c9576102c9610452565b01602001516001600160f81b031916846102e3848461047e565b815181106102f3576102f3610452565b01602001516001600160f81b031916145b1561031b578161031381610491565b925050610297565b8251820361032e5793506101c392505050565b60010161023b565b5060001993505050506101c3565b634e487b7160e01b600052604160045260246000fd5b600082601f83011261036b57600080fd5b813567ffffffffffffffff81111561038557610385610344565b604051601f8201601f19908116603f0116810167ffffffffffffffff811182821017156103b4576103b4610344565b6040528181528382016020018510156103cc57600080fd5b816020850160208301376000918101602001919091529392505050565b600080604083850312156103fc57600080fd5b823567ffffffffffffffff81111561041357600080fd5b61041f8582860161035a565b925050602083013567ffffffffffffffff81111561043c57600080fd5b6104488582860161035a565b9150509250929050565b634e487b7160e01b600052603260045260246000fd5b634e487b7160e01b600052601160045260246000fd5b808201808211156101c3576101c3610468565b6000600182016104a3576104a3610468565b506001019056fea264697066735822122026db4251173641c218ff59c41e82ec903db14414d0f063a8e7133b8b4ea143f364736f6c634300081c0033",
  "linkReferences": {},
  "deployedLinkReferences": {}
}