{
  "_format": "hh-sol-artifact-1",
  "contractName": "CascadeAccount",
  "sourceName": "contracts/CascadeAccount.sol",
  "abi": [
    {
      "inputs": [],
      "name": "AccessControlBadConfirmation",
      "type": "error"
    },
    {
      "inputs": [
        {
          "internalType": "address",
          "name": "account",
          "type": "address"
        },
        {
          "internalType": "bytes32",
          "name": "neededRole",
          "type": "bytes32"
        }
      ],
      "name": "AccessControlUnauthorizedAccount",
      "type": "error"
    },
    {
      "inputs": [],
      "name": "InvalidInitialization",
      "type": "error"
    },
    {
      "inputs": [],
      "name": "NotInitializing",
      "type": "error"
    },
    {
      "anonymous": false,
      "inputs": [
        {
          "indexed": true,
          "internalType": "string",
          "name": "purl",
          "type": "string"
        },
        {
          "indexed": false,
          "internalType": "address",
          "name": "token",
          "type": "address"
        },
        {
          "indexed": false,
          "internalType": "uint256",
          "name": "amount",
          "type": "uint256"
        },
        {
          "indexed": false,
          "internalType": "uint256",
          "name": "specID",
          "type": "uint256"
        },
        {
          "indexed": false,
          "internalType": "uint256",
          "name": "projectID",
          "type": "uint256"
        },
        {
          "indexed": false,
          "internalType": "uint256",
          "name": "splineID",
          "type": "uint256"
        }
      ],
      "name": "CascadePaycheck",
      "type": "event"
    },
    {
      "anonymous": false,
      "inputs": [
        {
          "indexed": false,
          "internalType": "uint64",
          "name": "version",
          "type": "uint64"
        }
      ],
      "name": "Initialized",
      "type": "event"
    },
    {
      "anonymous": false,
      "inputs": [
        {
          "indexed": true,
          "internalType": "bytes32",
          "name": "role",
          "type": "bytes32"
        },
        {
          "indexed": true,
          "internalType": "bytes32",
          "name": "previousAdminRole",
          "type": "bytes32"
        },
        {
          "indexed": true,
          "internalType": "bytes32",
          "name": "newAdminRole",
          "type": "bytes32"
        }
      ],
      "name": "RoleAdminChanged",
      "type": "event"
    },
    {
      "anonymous": false,
      "inputs": [
        {
          "indexed": true,
          "internalType": "bytes32",
          "name": "role",
          "type": "bytes32"
        },
        {
          "indexed": true,
          "internalType": "address",
          "name": "account",
          "type": "address"
        },
        {
          "indexed": true,
          "internalType": "address",
          "name": "sender",
          "type": "address"
        }
      ],
      "name": "RoleGranted",
      "type": "event"
    },
    {
      "anonymous": false,
      "inputs": [
        {
          "indexed": true,
          "internalType": "bytes32",
          "name": "role",
          "type": "bytes32"
        },
        {
          "indexed": true,
          "internalType": "address",
          "name": "account",
          "type": "address"
        },
        {
          "indexed": true,
          "internalType": "address",
          "name": "sender",
          "type": "address"
        }
      ],
      "name": "RoleRevoked",
      "type": "event"
    },
    {
      "inputs": [],
      "name": "DEFAULT_ADMIN_ROLE",
      "outputs": [
        {
          "internalType": "bytes32",
          "name": "",
          "type": "bytes32"
        }
      ],
      "stateMutability": "view",
      "type": "function"
    },
    {
      "inputs": [],
      "name": "HYPERPAYMENT_ROLE",
      "outputs": [
        {
          "internalType": "bytes32",
          "name": "",
          "type": "bytes32"
        }
      ],
      "stateMutability": "view",
      "type": "function"
    },
    {
      "inputs": [],
      "name": "SERVER_ROLE",
      "outputs": [
        {
          "internalType": "bytes32",
          "name": "",
          "type": "bytes32"
        }
      ],
      "stateMutability": "view",
      "type": "function"
    },
    {
      "inputs": [],
      "name": "WITHDRAWER_ROLE",
      "outputs": [
        {
          "internalType": "bytes32",
          "name": "",
          "type": "bytes32"
        }
      ],
      "stateMutability": "view",
      "type": "function"
    },
    {
      "inputs": [
        {
          "internalType": "string",
          "name": "purl",
          "type": "string"
        },
        {
          "internalType": "address",
          "name": "token",
          "type": "address"
        }
      ],
      "name": "balanceOf",
      "outputs": [
        {
          "internalType": "uint256",
          "name": "",
          "type": "uint256"
        }
      ],
      "stateMutability": "view",
      "type": "function"
    },
    {
      "inputs": [
        {
          "internalType": "string",
          "name": "",
          "type": "string"
        }
      ],
      "name": "cascadeAccounts",
      "outputs": [
        {
          "internalType": "address",
          "name": "token",
          "type": "address"
        },
        {
          "internalType": "uint256",
          "name": "amount",
          "type": "uint256"
        },
        {
          "internalType": "string",
          "name": "purl",
          "type": "string"
        },
        {
          "internalType": "string",
          "name": "username",
          "type": "string"
        },
        {
          "internalType": "string",
          "name": "authProvider",
          "type": "string"
        },
        {
          "internalType": "address",
          "name": "withdrawer",
          "type": "address"
        }
      ],
      "stateMutability": "view",
      "type": "function"
    },
    {
      "inputs": [
        {
          "internalType": "string",
          "name": "purl",
          "type": "string"
        },
        {
          "internalType": "address",
          "name": "token",
          "type": "address"
        },
        {
          "internalType": "uint256",
          "name": "amount",
          "type": "uint256"
        },
        {
          "internalType": "uint256",
          "name": "specID",
          "type": "uint256"
        },
        {
          "internalType": "uint256",
          "name": "projectID",
          "type": "uint256"
        },
        {
          "internalType": "uint256",
          "name": "splineID",
          "type": "uint256"
        }
      ],
      "name": "cascadePaycheck",
      "outputs": [],
      "stateMutability": "nonpayable",
      "type": "function"
    },
    {
      "inputs": [
        {
          "internalType": "bytes32",
          "name": "role",
          "type": "bytes32"
        }
      ],
      "name": "getRoleAdmin",
      "outputs": [
        {
          "internalType": "bytes32",
          "name": "",
          "type": "bytes32"
        }
      ],
      "stateMutability": "view",
      "type": "function"
    },
    {
      "inputs": [
        {
          "internalType": "bytes32",
          "name": "role",
          "type": "bytes32"
        },
        {
          "internalType": "address",
          "name": "account",
          "type": "address"
        }
      ],
      "name": "grantRole",
      "outputs": [],
      "stateMutability": "nonpayable",
      "type": "function"
    },
    {
      "inputs": [
        {
          "internalType": "bytes32",
          "name": "role",
          "type": "bytes32"
        },
        {
          "internalType": "address",
          "name": "account",
          "type": "address"
        }
      ],
      "name": "hasRole",
      "outputs": [
        {
          "internalType": "bool",
          "name": "",
          "type": "bool"
        }
      ],
      "stateMutability": "view",
      "type": "function"
    },
    {
      "inputs": [],
      "name": "initialize",
      "outputs": [],
      "stateMutability": "nonpayable",
      "type": "function"
    },
    {
      "inputs": [
        {
          "internalType": "bytes32",
          "name": "role",
          "type": "bytes32"
        },
        {
          "internalType": "address",
          "name": "callerConfirmation",
          "type": "address"
        }
      ],
      "name": "renounceRole",
      "outputs": [],
      "stateMutability": "nonpayable",
      "type": "function"
    },
    {
      "inputs": [
        {
          "internalType": "bytes32",
          "name": "role",
          "type": "bytes32"
        },
        {
          "internalType": "address",
          "name": "account",
          "type": "address"
        }
      ],
      "name": "revokeRole",
      "outputs": [],
      "stateMutability": "nonpayable",
      "type": "function"
    },
    {
      "inputs": [
        {
          "internalType": "string",
          "name": "purl",
          "type": "string"
        },
        {
          "internalType": "address",
          "name": "_addr",
          "type": "address"
        },
        {
          "internalType": "string",
          "name": "_username",
          "type": "string"
        },
        {
          "internalType": "string",
          "name": "_authProvider",
          "type": "string"
        }
      ],
      "name": "setMaintainer",
      "outputs": [],
      "stateMutability": "nonpayable",
      "type": "function"
    },
    {
      "inputs": [
        {
          "internalType": "bytes4",
          "name": "interfaceId",
          "type": "bytes4"
        }
      ],
      "name": "supportsInterface",
      "outputs": [
        {
          "internalType": "bool",
          "name": "",
          "type": "bool"
        }
      ],
      "stateMutability": "view",
      "type": "function"
    },
    {
      "inputs": [
        {
          "internalType": "string",
          "name": "purl",
          "type": "string"
        },
        {
          "internalType": "address",
          "name": "token",
          "type": "address"
        }
      ],
      "name": "withdrawAllToken",
      "outputs": [],
      "stateMutability": "nonpayable",
      "type": "function"
    }
  ],
  "bytecode": "0x6080604052348015600f57600080fd5b5061142d8061001f6000396000f3fe608060405234801561001057600080fd5b50600436106101005760003560e01c80638129fc1c1161009757806391d148541161006657806391d1485414610251578063a217fddf14610264578063acc6bb821461026c578063d547741f1461027f57600080fd5b80638129fc1c146101e857806385a20f23146101f057806385f438c1146102035780638adbddb01461022a57600080fd5b8063248a9ca3116100d3578063248a9ca31461018a5780632f2ff15d1461019d57806336568abe146101b0578063675346e1146101c357600080fd5b806301ffc9a714610105578063040318521461012d57806314213f4f1461014e57806318cf283414610163575b600080fd5b610118610113366004610d91565b610292565b60405190151581526020015b60405180910390f35b61014061013b366004610e83565b6102c9565b604051908152602001610124565b61016161015c366004610ed1565b610317565b005b6101407fa8a7bc421f721cb936ea99efdad79237e6ee0b871a2a08cf648691f9584cdc7781565b610140610198366004610f41565b610410565b6101616101ab366004610f5a565b610432565b6101616101be366004610f5a565b610454565b6101d66101d1366004610f7d565b61048c565b6040516101249695949392919061100a565b610161610677565b6101616101fe3660046110bc565b6107f6565b6101407f10dac8c06a04bec0b551627dad28bc00d6516b0caacd1c7b345fcdb5211334e481565b6101407f4cca7bcb4ecab6a9629237484c704f867fbaf97cc795bfce8490a48f6e5db63481565b61011861025f366004610f5a565b6109ab565b610140600081565b61016161027a366004610e83565b6109e3565b61016161028d366004610f5a565b610be1565b60006001600160e01b03198216637965db0b60e01b14806102c357506301ffc9a760e01b6001600160e01b03198316145b92915050565b600080836040516102da919061116d565b90815260200160405180910390206006016000836001600160a01b03166001600160a01b0316815260200190815260200160002054905092915050565b7f4cca7bcb4ecab6a9629237484c704f867fbaf97cc795bfce8490a48f6e5db63461034181610bfd565b84600088604051610352919061116d565b90815260200160405180910390206006016000886001600160a01b03166001600160a01b0316815260200190815260200160002060008282546103959190611189565b90915550506040516103a890889061116d565b604080519182900382206001600160a01b0389168352602083018890529082018690526060820185905260808201849052907f5b2f860f50c894fce8f6a0624e36a979994047e367e3fe0d7efc88dd168a9abf9060a00160405180910390a250505050505050565b60009081526000805160206113d8833981519152602052604090206001015490565b61043b82610410565b61044481610bfd565b61044e8383610c0a565b50505050565b6001600160a01b038116331461047d5760405163334bd91960e11b815260040160405180910390fd5b6104878282610caf565b505050565b80516020818301810180516000825292820191909301209152805460018201546002830180546001600160a01b039093169391926104c9906111aa565b80601f01602080910402602001604051908101604052809291908181526020018280546104f5906111aa565b80156105425780601f1061051757610100808354040283529160200191610542565b820191906000526020600020905b81548152906001019060200180831161052557829003601f168201915b505050505090806003018054610557906111aa565b80601f0160208091040260200160405190810160405280929190818152602001828054610583906111aa565b80156105d05780601f106105a5576101008083540402835291602001916105d0565b820191906000526020600020905b8154815290600101906020018083116105b357829003601f168201915b5050505050908060040180546105e5906111aa565b80601f0160208091040260200160405190810160405280929190818152602001828054610611906111aa565b801561065e5780601f106106335761010080835404028352916020019161065e565b820191906000526020600020905b81548152906001019060200180831161064157829003601f168201915b505050600590930154919250506001600160a01b031686565b6000610681610d2b565b805490915060ff600160401b820416159067ffffffffffffffff166000811580156106a95750825b905060008267ffffffffffffffff1660011480156106c65750303b155b9050811580156106d4575080155b156106f25760405163f92ee8a960e01b815260040160405180910390fd5b845467ffffffffffffffff19166001178555831561071c57845460ff60401b1916600160401b1785555b610727600033610c0a565b506107527fa8a7bc421f721cb936ea99efdad79237e6ee0b871a2a08cf648691f9584cdc7733610c0a565b5061077d7f10dac8c06a04bec0b551627dad28bc00d6516b0caacd1c7b345fcdb5211334e433610c0a565b506107a87f4cca7bcb4ecab6a9629237484c704f867fbaf97cc795bfce8490a48f6e5db63433610c0a565b5083156107ef57845460ff60401b19168555604051600181527fc7f505b2f371ae2175ee4913f4499e1f2633a7b5936321eed1cdaeb6115181d29060200160405180910390a15b5050505050565b7fa8a7bc421f721cb936ea99efdad79237e6ee0b871a2a08cf648691f9584cdc7761082081610bfd565b856001600160a01b031660008860405161083a919061116d565b908152604051908190036020019020600501546001600160a01b03161461089f578560008860405161086c919061116d565b90815260405190819003602001902060050180546001600160a01b03929092166001600160a01b03199092169190911790555b73__$7481ba9d958a8dd8ef3f2e538c165f711b$__6346bdca9a6000896040516108c9919061116d565b908152602001604051809103902060030187876040518463ffffffff1660e01b81526004016108fa9392919061120d565b602060405180830381865af4158015610917573d6000803e3d6000fd5b505050506040513d601f19601f8201168201806040525081019061093b91906112ae565b6109a2578484600089604051610951919061116d565b9081526020016040518091039020600301918261096f929190611317565b508282600089604051610982919061116d565b908152602001604051809103902060040191826109a0929190611317565b505b50505050505050565b60009182526000805160206113d8833981519152602090815260408084206001600160a01b0393909316845291905290205460ff1690565b81336001600160a01b03166000826040516109fe919061116d565b908152604051908190036020019020600501546001600160a01b03161480610a4b5750610a4b7f10dac8c06a04bec0b551627dad28bc00d6516b0caacd1c7b345fcdb5211334e4336109ab565b610a8d5760405162461bcd60e51b815260206004820152600e60248201526d2737ba103bb4ba34323930bbb2b960911b60448201526064015b60405180910390fd5b6000610a9984846102c9565b11610ad25760405162461bcd60e51b81526020600482015260096024820152684e6f20746f6b656e7360b81b6044820152606401610a84565b816001600160a01b031663a9059cbb33600086604051610af2919061116d565b9081526040805191829003602090810183206001600160a01b0389166000908152600690910190915220546001600160e01b031960e085901b168252610b4f92916004016001600160a01b03929092168252602082015260400190565b6020604051808303816000875af1158015610b6e573d6000803e3d6000fd5b505050506040513d601f19601f82011682018060405250810190610b9291906112ae565b5060008084604051610ba4919061116d565b90815260200160405180910390206006016000846001600160a01b03166001600160a01b0316815260200190815260200160002081905550505050565b610bea82610410565b610bf381610bfd565b61044e8383610caf565b610c078133610d54565b50565b60006000805160206113d8833981519152610c2584846109ab565b610ca5576000848152602082815260408083206001600160a01b03871684529091529020805460ff19166001179055610c5b3390565b6001600160a01b0316836001600160a01b0316857f2f8788117e7eff1d82e926ec794901d17c78024a50270940304540a733656f0d60405160405180910390a460019150506102c3565b60009150506102c3565b60006000805160206113d8833981519152610cca84846109ab565b15610ca5576000848152602082815260408083206001600160a01b0387168085529252808320805460ff1916905551339287917ff6391f5c32d9c69d2a47ea670b442974b53935d1edc7fd64eb21e047a839171b9190a460019150506102c3565b6000807ff0c57e16840df040f15088dc2f81fe391c3923bec73e23a9662efc9c229c6a006102c3565b610d5e82826109ab565b610d8d5760405163e2517d3f60e01b81526001600160a01b038216600482015260248101839052604401610a84565b5050565b600060208284031215610da357600080fd5b81356001600160e01b031981168114610dbb57600080fd5b9392505050565b634e487b7160e01b600052604160045260246000fd5b600082601f830112610de957600080fd5b813567ffffffffffffffff811115610e0357610e03610dc2565b604051601f8201601f19908116603f0116810167ffffffffffffffff81118282101715610e3257610e32610dc2565b604052818152838201602001851015610e4a57600080fd5b816020850160208301376000918101602001919091529392505050565b80356001600160a01b0381168114610e7e57600080fd5b919050565b60008060408385031215610e9657600080fd5b823567ffffffffffffffff811115610ead57600080fd5b610eb985828601610dd8565b925050610ec860208401610e67565b90509250929050565b60008060008060008060c08789031215610eea57600080fd5b863567ffffffffffffffff811115610f0157600080fd5b610f0d89828a01610dd8565b965050610f1c60208801610e67565b95989597505050506040840135936060810135936080820135935060a0909101359150565b600060208284031215610f5357600080fd5b5035919050565b60008060408385031215610f6d57600080fd5b82359150610ec860208401610e67565b600060208284031215610f8f57600080fd5b813567ffffffffffffffff811115610fa657600080fd5b610fb284828501610dd8565b949350505050565b60005b83811015610fd5578181015183820152602001610fbd565b50506000910152565b60008151808452610ff6816020860160208601610fba565b601f01601f19169290920160200192915050565b60018060a01b038716815285602082015260c06040820152600061103160c0830187610fde565b82810360608401526110438187610fde565b905082810360808401526110578186610fde565b91505060018060a01b03831660a0830152979650505050505050565b60008083601f84011261108557600080fd5b50813567ffffffffffffffff81111561109d57600080fd5b6020830191508360208285010111156110b557600080fd5b9250929050565b600080600080600080608087890312156110d557600080fd5b863567ffffffffffffffff8111156110ec57600080fd5b6110f889828a01610dd8565b96505061110760208801610e67565b9450604087013567ffffffffffffffff81111561112357600080fd5b61112f89828a01611073565b909550935050606087013567ffffffffffffffff81111561114f57600080fd5b61115b89828a01611073565b979a9699509497509295939492505050565b6000825161117f818460208701610fba565b9190910192915050565b808201808211156102c357634e487b7160e01b600052601160045260246000fd5b600181811c908216806111be57607f821691505b6020821081036111de57634e487b7160e01b600052602260045260246000fd5b50919050565b81835281816020850137506000828201602090810191909152601f909101601f19169091010190565b60408152600080855461121f816111aa565b806040860152600182166000811461123e576001811461125a5761128e565b60ff1983166060870152606082151560051b870101935061128e565b88600052602060002060005b8381101561128557815488820160600152600190910190602001611266565b87016060019450505b50505082810360208401526112a48185876111e4565b9695505050505050565b6000602082840312156112c057600080fd5b81518015158114610dbb57600080fd5b601f82111561048757806000526020600020601f840160051c810160208510156112f75750805b601f840160051c820191505b818110156107ef5760008155600101611303565b67ffffffffffffffff83111561132f5761132f610dc2565b6113438361133d83546111aa565b836112d0565b6000601f841160018114611377576000851561135f5750838201355b600019600387901b1c1916600186901b1783556107ef565b600083815260209020601f19861690835b828110156113a85786850135825560209485019460019092019101611388565b50868210156113c55760001960f88860031b161c19848701351681555b505060018560011b018355505050505056fe02dd7bc7dec4dceedda775e58dd541e08a116c6c53815c0bd028192f7b626800a26469706673582212200534a49169d7cd2a85e0002ce26cf2eb3bba73bf92e646ac079a3a370f6069f264736f6c634300081c0033",
  "linkReferences": {
    "contracts/StringUtils.sol": {
      "StringUtils": [
        {
          "length": 20,
          "start": 2240
        }
      ]
    }
  },
  "deployedLinkReferences": {
    "contracts/StringUtils.sol": {
      "StringUtils": [
        {
          "length": 20,
          "start": 2209
        }
      ]
    }
  }
}