{
  "_format": "hh-sol-artifact-1",
  "contractName": "CategoryCustomer",
  "sourceName": "contracts/CategoryCustomer.sol",
  "abi": [
    {
      "inputs": [],
      "name": "AccessControlBadConfirmation",
      "type": "error"
    },
    {
      "inputs": [
        {
          "internalType": "address",
          "name": "account",
          "type": "address"
        },
        {
          "internalType": "bytes32",
          "name": "neededRole",
          "type": "bytes32"
        }
      ],
      "name": "AccessControlUnauthorizedAccount",
      "type": "error"
    },
    {
      "inputs": [],
      "name": "InvalidInitialization",
      "type": "error"
    },
    {
      "inputs": [],
      "name": "NotInitializing",
      "type": "error"
    },
    {
      "anonymous": false,
      "inputs": [
        {
          "indexed": false,
          "internalType": "uint64",
          "name": "version",
          "type": "uint64"
        }
      ],
      "name": "Initialized",
      "type": "event"
    },
    {
      "anonymous": false,
      "inputs": [
        {
          "indexed": true,
          "internalType": "bytes32",
          "name": "role",
          "type": "bytes32"
        },
        {
          "indexed": true,
          "internalType": "bytes32",
          "name": "previousAdminRole",
          "type": "bytes32"
        },
        {
          "indexed": true,
          "internalType": "bytes32",
          "name": "newAdminRole",
          "type": "bytes32"
        }
      ],
      "name": "RoleAdminChanged",
      "type": "event"
    },
    {
      "anonymous": false,
      "inputs": [
        {
          "indexed": true,
          "internalType": "bytes32",
          "name": "role",
          "type": "bytes32"
        },
        {
          "indexed": true,
          "internalType": "address",
          "name": "account",
          "type": "address"
        },
        {
          "indexed": true,
          "internalType": "address",
          "name": "sender",
          "type": "address"
        }
      ],
      "name": "RoleGranted",
      "type": "event"
    },
    {
      "anonymous": false,
      "inputs": [
        {
          "indexed": true,
          "internalType": "bytes32",
          "name": "role",
          "type": "bytes32"
        },
        {
          "indexed": true,
          "internalType": "address",
          "name": "account",
          "type": "address"
        },
        {
          "indexed": true,
          "internalType": "address",
          "name": "sender",
          "type": "address"
        }
      ],
      "name": "RoleRevoked",
      "type": "event"
    },
    {
      "anonymous": false,
      "inputs": [
        {
          "indexed": false,
          "internalType": "uint256",
          "name": "specID",
          "type": "uint256"
        },
        {
          "indexed": false,
          "internalType": "uint256",
          "name": "projectID",
          "type": "uint256"
        },
        {
          "indexed": false,
          "internalType": "uint256",
          "name": "counter",
          "type": "uint256"
        },
        {
          "indexed": false,
          "internalType": "uint256",
          "name": "amount",
          "type": "uint256"
        }
      ],
      "name": "Withdraw",
      "type": "event"
    },
    {
      "inputs": [],
      "name": "DEFAULT_ADMIN_ROLE",
      "outputs": [
        {
          "internalType": "bytes32",
          "name": "",
          "type": "bytes32"
        }
      ],
      "stateMutability": "view",
      "type": "function"
    },
    {
      "inputs": [],
      "name": "HYPERPAYMENT_ROLE",
      "outputs": [
        {
          "internalType": "bytes32",
          "name": "",
          "type": "bytes32"
        }
      ],
      "stateMutability": "view",
      "type": "function"
    },
    {
      "inputs": [],
      "name": "SERVER_ROLE",
      "outputs": [
        {
          "internalType": "bytes32",
          "name": "",
          "type": "bytes32"
        }
      ],
      "stateMutability": "view",
      "type": "function"
    },
    {
      "inputs": [],
      "name": "collector",
      "outputs": [
        {
          "internalType": "address",
          "name": "",
          "type": "address"
        }
      ],
      "stateMutability": "view",
      "type": "function"
    },
    {
      "inputs": [
        {
          "internalType": "bytes",
          "name": "payload",
          "type": "bytes"
        }
      ],
      "name": "decodePayload",
      "outputs": [
        {
          "internalType": "uint256",
          "name": "",
          "type": "uint256"
        },
        {
          "internalType": "uint256",
          "name": "",
          "type": "uint256"
        },
        {
          "internalType": "address",
          "name": "",
          "type": "address"
        },
        {
          "internalType": "string",
          "name": "",
          "type": "string"
        }
      ],
      "stateMutability": "pure",
      "type": "function"
    },
    {
      "inputs": [
        {
          "internalType": "uint256",
          "name": "_salt",
          "type": "uint256"
        }
      ],
      "name": "deploy",
      "outputs": [],
      "stateMutability": "nonpayable",
      "type": "function"
    },
    {
      "inputs": [],
      "name": "getBytecode",
      "outputs": [
        {
          "internalType": "bytes32",
          "name": "",
          "type": "bytes32"
        }
      ],
      "stateMutability": "view",
      "type": "function"
    },
    {
      "inputs": [
        {
          "internalType": "uint256",
          "name": "_specID",
          "type": "uint256"
        },
        {
          "internalType": "uint256",
          "name": "_projectID",
          "type": "uint256"
        },
        {
          "internalType": "bytes",
          "name": "_payload",
          "type": "bytes"
        }
      ],
      "name": "getCalculatedAddress",
      "outputs": [
        {
          "internalType": "address",
          "name": "",
          "type": "address"
        }
      ],
      "stateMutability": "view",
      "type": "function"
    },
    {
      "inputs": [
        {
          "internalType": "uint256",
          "name": "_specID",
          "type": "uint256"
        },
        {
          "internalType": "uint256",
          "name": "_projectID",
          "type": "uint256"
        },
        {
          "internalType": "bytes",
          "name": "_payload",
          "type": "bytes"
        }
      ],
      "name": "getInitialProduct",
      "outputs": [
        {
          "internalType": "string",
          "name": "",
          "type": "string"
        },
        {
          "internalType": "uint256",
          "name": "",
          "type": "uint256"
        }
      ],
      "stateMutability": "nonpayable",
      "type": "function"
    },
    {
      "inputs": [
        {
          "internalType": "bytes32",
          "name": "role",
          "type": "bytes32"
        }
      ],
      "name": "getRoleAdmin",
      "outputs": [
        {
          "internalType": "bytes32",
          "name": "",
          "type": "bytes32"
        }
      ],
      "stateMutability": "view",
      "type": "function"
    },
    {
      "inputs": [
        {
          "internalType": "uint256",
          "name": "specID",
          "type": "uint256"
        },
        {
          "internalType": "uint256",
          "name": "projectID",
          "type": "uint256"
        },
        {
          "internalType": "bytes",
          "name": "_payload",
          "type": "bytes"
        }
      ],
      "name": "getSalt",
      "outputs": [
        {
          "internalType": "uint256",
          "name": "",
          "type": "uint256"
        }
      ],
      "stateMutability": "pure",
      "type": "function"
    },
    {
      "inputs": [
        {
          "internalType": "bytes32",
          "name": "role",
          "type": "bytes32"
        },
        {
          "internalType": "address",
          "name": "account",
          "type": "address"
        }
      ],
      "name": "grantRole",
      "outputs": [],
      "stateMutability": "nonpayable",
      "type": "function"
    },
    {
      "inputs": [
        {
          "internalType": "bytes32",
          "name": "role",
          "type": "bytes32"
        },
        {
          "internalType": "address",
          "name": "account",
          "type": "address"
        }
      ],
      "name": "hasRole",
      "outputs": [
        {
          "internalType": "bool",
          "name": "",
          "type": "bool"
        }
      ],
      "stateMutability": "view",
      "type": "function"
    },
    {
      "inputs": [],
      "name": "initialize",
      "outputs": [],
      "stateMutability": "nonpayable",
      "type": "function"
    },
    {
      "inputs": [
        {
          "internalType": "uint256",
          "name": "",
          "type": "uint256"
        },
        {
          "internalType": "uint256",
          "name": "",
          "type": "uint256"
        },
        {
          "internalType": "uint256",
          "name": "",
          "type": "uint256"
        },
        {
          "internalType": "uint256",
          "name": "",
          "type": "uint256"
        },
        {
          "internalType": "address",
          "name": "",
          "type": "address"
        },
        {
          "internalType": "uint256",
          "name": "",
          "type": "uint256"
        }
      ],
      "name": "paycheck",
      "outputs": [],
      "stateMutability": "pure",
      "type": "function"
    },
    {
      "inputs": [
        {
          "internalType": "uint256",
          "name": "",
          "type": "uint256"
        },
        {
          "internalType": "uint256",
          "name": "",
          "type": "uint256"
        },
        {
          "internalType": "bytes",
          "name": "",
          "type": "bytes"
        }
      ],
      "name": "registerUser",
      "outputs": [
        {
          "internalType": "bool",
          "name": "",
          "type": "bool"
        }
      ],
      "stateMutability": "pure",
      "type": "function"
    },
    {
      "inputs": [
        {
          "internalType": "bytes32",
          "name": "role",
          "type": "bytes32"
        },
        {
          "internalType": "address",
          "name": "callerConfirmation",
          "type": "address"
        }
      ],
      "name": "renounceRole",
      "outputs": [],
      "stateMutability": "nonpayable",
      "type": "function"
    },
    {
      "inputs": [
        {
          "internalType": "bytes32",
          "name": "role",
          "type": "bytes32"
        },
        {
          "internalType": "address",
          "name": "account",
          "type": "address"
        }
      ],
      "name": "revokeRole",
      "outputs": [],
      "stateMutability": "nonpayable",
      "type": "function"
    },
    {
      "inputs": [
        {
          "internalType": "bytes4",
          "name": "interfaceId",
          "type": "bytes4"
        }
      ],
      "name": "supportsInterface",
      "outputs": [
        {
          "internalType": "bool",
          "name": "",
          "type": "bool"
        }
      ],
      "stateMutability": "view",
      "type": "function"
    },
    {
      "inputs": [
        {
          "internalType": "uint256",
          "name": "",
          "type": "uint256"
        }
      ],
      "name": "usedCounters",
      "outputs": [
        {
          "internalType": "bool",
          "name": "",
          "type": "bool"
        }
      ],
      "stateMutability": "view",
      "type": "function"
    },
    {
      "inputs": [
        {
          "internalType": "address",
          "name": "",
          "type": "address"
        }
      ],
      "name": "withdrawnDeposits",
      "outputs": [
        {
          "internalType": "bool",
          "name": "",
          "type": "bool"
        }
      ],
      "stateMutability": "view",
      "type": "function"
    }
  ],
  "bytecode": "0x6080604052348015600f57600080fd5b5061189d8061001f6000396000f3fe608060405234801561001057600080fd5b50600436106101375760003560e01c80636d3c2bd9116100b85780639e14bb1c1161007c5780639e14bb1c146102d6578063a217fddf146102f9578063a5e3875114610301578063c732e96714610314578063ca68ec8614610327578063d547741f1461033a57600080fd5b80636d3c2bd9146102565780638129fc1c146102695780638adbddb014610271578063913e77ad1461029857806391d14854146102c357600080fd5b806336568abe116100ff57806336568abe146101e457806352c7420d146101f75780635cdec871146101ff578063657ec4a3146102225780636c13e0651461024357600080fd5b806301ffc9a71461013c57806318cf283414610164578063197c6e7714610199578063248a9ca3146101bc5780632f2ff15d146101cf575b600080fd5b61014f61014a366004610e32565b61034d565b60405190151581526020015b60405180910390f35b61018b7fa8a7bc421f721cb936ea99efdad79237e6ee0b871a2a08cf648691f9584cdc7781565b60405190815260200161015b565b6101ac6101a7366004610f28565b610384565b60405161015b9493929190610fb5565b61018b6101ca366004610fec565b610505565b6101e26101dd36600461101a565b610527565b005b6101e26101f236600461101a565b610549565b61018b610581565b61014f61020d366004610fec565b60016020526000908152604090205460ff1681565b61023561023036600461104a565b6105fc565b60405161015b92919061109a565b6101e26102513660046110bc565b610911565b61018b61026436600461104a565b61094b565b6101e2610984565b61018b7ffc24bd2866d4f21a3c7a09cde981207397f26e9f9fadb9875868f03c1c5228ee81565b6000546102ab906001600160a01b031681565b6040516001600160a01b03909116815260200161015b565b61014f6102d136600461101a565b610aeb565b61014f6102e4366004611111565b60026020526000908152604090205460ff1681565b61018b600081565b6101e261030f366004610fec565b610b23565b6102ab61032236600461104a565b610b56565b61014f61033536600461112e565b610bd9565b6101e261034836600461101a565b610c16565b60006001600160e01b03198216637965db0b60e01b148061037e57506301ffc9a760e01b6001600160e01b03198316145b92915050565b60008060006060600080600080888060200190518101906103a591906111b1565b9350935093509350600084116103f95760405162461bcd60e51b81526020600482015260146024820152730436f756e7465722063616e206e6f7420626520360641b60448201526064015b60405180910390fd5b6000831161043f5760405162461bcd60e51b81526020600482015260136024820152720416d6f756e742063616e206e6f74206265203606c1b60448201526064016103f0565b60008151116104905760405162461bcd60e51b815260206004820152601e60248201527f5265736f75726365206e616d652063616e206e6f7420626520656d707479000060448201526064016103f0565b6001600160a01b0382166104f65760405162461bcd60e51b815260206004820152602760248201527f5265736f7572636520746f6b656e20616464726573732063616e206e6f7420626044820152666520656d70747960c81b60648201526084016103f0565b92989197509550909350915050565b6000908152600080516020611848833981519152602052604090206001015490565b61053082610505565b61053981610c32565b6105438383610c3f565b50505050565b6001600160a01b03811633146105725760405163334bd91960e11b815260040160405180910390fd5b61057c8282610ce4565b505050565b6000806040518060200161059490610e25565b601f1982820381018352601f9091011660408181526000543060208401526001600160a01b031681830152805180830382018152606083019091529192506105e0918391608001611250565b6040516020818303038152906040528051906020012091505090565b606060007ffc24bd2866d4f21a3c7a09cde981207397f26e9f9fadb9875868f03c1c5228ee61062a81610c32565b60008060008061063988610384565b6000848152600160205260409020549397509195509350915060ff16156106915760405162461bcd60e51b815260206004820152600c60248201526b10dbdd5b9d195c881d5cd95960a21b60448201526064016103f0565b600061069e8b8b8b61094b565b905060006106ad8c8c8c610b56565b6001600160a01b03811660009081526002602052604090205490915060ff161561070d5760405162461bcd60e51b815260206004820152601160248201527020b63932b0b23c903bb4ba34323930bbb760791b60448201526064016103f0565b600061071883610d60565b9050816001600160a01b0316816001600160a01b03161461077b5760405162461bcd60e51b815260206004820152601a60248201527f496e76616c6964206465706c6f796564206465706f736974657200000000000060448201526064016103f0565b604051631a4ca37b60e21b81526001600160a01b03868116600483015260248201889052336044830152600091908316906369328dec906064016020604051808303816000875af11580156107d4573d6000803e3d6000fd5b505050506040513d601f19601f820116820180604052508101906107f8919061127f565b9050868110156108415760405162461bcd60e51b8152602060048201526014602482015273139bdd081dda5d1a191c985ddb88185d08185b1b60621b60448201526064016103f0565b60018060008a815260200190815260200160002060006101000a81548160ff021916908315150217905550600160026000856001600160a01b03166001600160a01b0316815260200190815260200160002060006101000a81548160ff0219169083151502179055507fb088a38065873c9d2da855cf4a2e4aa012b28e45ead53c5b9edbcf71614cfb238e8e8a846040516108f5949392919093845260208401929092526040830152606082015260800190565b60405180910390a1939d939c50929a5050505050505050505050565b60405162461bcd60e51b815260206004820152600f60248201526e139bdd081a5b5c1b195b595b9d1959608a1b60448201526064016103f0565b60008084848460405160200161096393929190611298565b60408051808303601f19018152919052805160209091012095945050505050565b600061098e610dbf565b805490915060ff600160401b820416159067ffffffffffffffff166000811580156109b65750825b905060008267ffffffffffffffff1660011480156109d35750303b155b9050811580156109e1575080155b156109ff5760405163f92ee8a960e01b815260040160405180910390fd5b845467ffffffffffffffff191660011785558315610a2957845460ff60401b1916600160401b1785555b600080546001600160a01b031916339081178255610a479190610c3f565b50610a727ffc24bd2866d4f21a3c7a09cde981207397f26e9f9fadb9875868f03c1c5228ee33610c3f565b50610a9d7fa8a7bc421f721cb936ea99efdad79237e6ee0b871a2a08cf648691f9584cdc7733610c3f565b508315610ae457845460ff60401b19168555604051600181527fc7f505b2f371ae2175ee4913f4499e1f2633a7b5936321eed1cdaeb6115181d29060200160405180910390a15b5050505050565b6000918252600080516020611848833981519152602090815260408084206001600160a01b0393909316845291905290205460ff1690565b7fa8a7bc421f721cb936ea99efdad79237e6ee0b871a2a08cf648691f9584cdc77610b4d81610c32565b61057c82610d60565b600080610b6485858561094b565b905060006001600160f81b03193083610b7b610581565b6040516001600160f81b031994909416602085015260609290921b6bffffffffffffffffffffffff191660218401526035830152605582015260750160408051808303601f1901815291905280516020909101209695505050505050565b60405162461bcd60e51b815260206004820152600f60248201526e139bdd081a5b5c1b195b595b9d1959608a1b60448201526000906064016103f0565b610c1f82610505565b610c2881610c32565b6105438383610ce4565b610c3c8133610de8565b50565b6000600080516020611848833981519152610c5a8484610aeb565b610cda576000848152602082815260408083206001600160a01b03871684529091529020805460ff19166001179055610c903390565b6001600160a01b0316836001600160a01b0316857f2f8788117e7eff1d82e926ec794901d17c78024a50270940304540a733656f0d60405160405180910390a4600191505061037e565b600091505061037e565b6000600080516020611848833981519152610cff8484610aeb565b15610cda576000848152602082815260408083206001600160a01b0387168085529252808320805460ff1916905551339287917ff6391f5c32d9c69d2a47ea670b442974b53935d1edc7fd64eb21e047a839171b9190a4600191505061037e565b600080546040518291849130916001600160a01b031690610d8090610e25565b6001600160a01b039283168152911660208201526040018190604051809103906000f5905080158015610db7573d6000803e3d6000fd5b509392505050565b6000807ff0c57e16840df040f15088dc2f81fe391c3923bec73e23a9662efc9c229c6a0061037e565b610df28282610aeb565b610e215760405163e2517d3f60e01b81526001600160a01b0382166004820152602481018390526044016103f0565b5050565b610582806112c683390190565b600060208284031215610e4457600080fd5b81356001600160e01b031981168114610e5c57600080fd5b9392505050565b634e487b7160e01b600052604160045260246000fd5b604051601f8201601f1916810167ffffffffffffffff81118282101715610ea257610ea2610e63565b604052919050565b600067ffffffffffffffff821115610ec457610ec4610e63565b50601f01601f191660200190565b600082601f830112610ee357600080fd5b8135610ef6610ef182610eaa565b610e79565b818152846020838601011115610f0b57600080fd5b816020850160208301376000918101602001919091529392505050565b600060208284031215610f3a57600080fd5b813567ffffffffffffffff811115610f5157600080fd5b610f5d84828501610ed2565b949350505050565b60005b83811015610f80578181015183820152602001610f68565b50506000910152565b60008151808452610fa1816020860160208601610f65565b601f01601f19169290920160200192915050565b84815283602082015260018060a01b0383166040820152608060608201526000610fe26080830184610f89565b9695505050505050565b600060208284031215610ffe57600080fd5b5035919050565b6001600160a01b0381168114610c3c57600080fd5b6000806040838503121561102d57600080fd5b82359150602083013561103f81611005565b809150509250929050565b60008060006060848603121561105f57600080fd5b8335925060208401359150604084013567ffffffffffffffff81111561108457600080fd5b61109086828701610ed2565b9150509250925092565b6040815260006110ad6040830185610f89565b90508260208301529392505050565b60008060008060008060c087890312156110d557600080fd5b8635955060208701359450604087013593506060870135925060808701356110fc81611005565b9598949750929591949360a090920135925050565b60006020828403121561112357600080fd5b8135610e5c81611005565b6000806000806060858703121561114457600080fd5b8435935060208501359250604085013567ffffffffffffffff81111561116957600080fd5b8501601f8101871361117a57600080fd5b803567ffffffffffffffff81111561119157600080fd5b8760208284010111156111a357600080fd5b949793965060200194505050565b600080600080608085870312156111c757600080fd5b84516020860151604087015191955093506111e181611005565b606086015190925067ffffffffffffffff8111156111fe57600080fd5b8501601f8101871361120f57600080fd5b805161121d610ef182610eaa565b81815288602083850101111561123257600080fd5b611243826020830160208601610f65565b9598949750929550505050565b60008351611262818460208801610f65565b835190830190611276818360208801610f65565b01949350505050565b60006020828403121561129157600080fd5b5051919050565b838152826020820152600082516112b6816040850160208701610f65565b9190910160400194935050505056fe6080604052348015600f57600080fd5b50604051610582380380610582833981016040819052602c916077565b600080546001600160a01b039384166001600160a01b0319918216179091556001805492909316911617905560a5565b80516001600160a01b0381168114607257600080fd5b919050565b60008060408385031215608957600080fd5b609083605c565b9150609c60208401605c565b90509250929050565b6104ce806100b46000396000f3fe608060405234801561001057600080fd5b50600436106100575760003560e01c806359951f461461005c57806369328dec146100715780638da5cb5b14610097578063913e77ad146100c2578063c80ec522146100d5575b600080fd5b61006f61006a3660046103ff565b6100f9565b005b61008461007f366004610421565b61023c565b6040519081526020015b60405180910390f35b6000546100aa906001600160a01b031681565b6040516001600160a01b03909116815260200161008e565b6001546100aa906001600160a01b031681565b6001546100e990600160a01b900460ff1681565b604051901515815260200161008e565b6001546001600160a01b0316331461011057600080fd5b6040516370a0823160e01b815230600482015281906000906001600160a01b038316906370a0823190602401602060405180830381865afa158015610159573d6000803e3d6000fd5b505050506040513d601f19601f8201168201806040525081019061017d919061045d565b9050600081116101c55760405162461bcd60e51b815260206004820152600e60248201526d3737903a37b5b2b71033b4bb32b760911b60448201526064015b60405180910390fd5b60405163a9059cbb60e01b8152336004820152602481018290526001600160a01b0383169063a9059cbb906044016020604051808303816000875af1158015610212573d6000803e3d6000fd5b505050506040513d601f19601f820116820180604052508101906102369190610476565b50505050565b600080546001600160a01b0316331461025457600080fd5b600154600160a01b900460ff16156102a25760405162461bcd60e51b815260206004820152601160248201527030b63932b0b23c903bb4ba34323930bbb760791b60448201526064016101bc565b6040516370a0823160e01b815230600482015284906000906001600160a01b038316906370a0823190602401602060405180830381865afa1580156102eb573d6000803e3d6000fd5b505050506040513d601f19601f8201168201806040525081019061030f919061045d565b9050848110156103525760405162461bcd60e51b815260206004820152600e60248201526d3737903a37b5b2b71033b4bb32b760911b60448201526064016101bc565b60405163a9059cbb60e01b81526001600160a01b0385811660048301526024820183905283169063a9059cbb906044016020604051808303816000875af11580156103a1573d6000803e3d6000fd5b505050506040513d601f19601f820116820180604052508101906103c59190610476565b506001805460ff60a01b1916600160a01b1790559150509392505050565b80356001600160a01b03811681146103fa57600080fd5b919050565b60006020828403121561041157600080fd5b61041a826103e3565b9392505050565b60008060006060848603121561043657600080fd5b61043f846103e3565b925060208401359150610454604085016103e3565b90509250925092565b60006020828403121561046f57600080fd5b5051919050565b60006020828403121561048857600080fd5b8151801515811461041a57600080fdfea2646970667358221220a3c23983cb71891e06c62388eec14eee103f7c7d5c7b52b1867ec3c91a099f4f64736f6c634300081c003302dd7bc7dec4dceedda775e58dd541e08a116c6c53815c0bd028192f7b626800a26469706673582212203c40e005001fa1ab61a2bc2b899582890ff6517cc594c307aaa889c715c8777464736f6c634300081c0033",
  "linkReferences": {},
  "deployedLinkReferences": {}
}