{
  "_format": "hh-sol-artifact-1",
  "contractName": "CategoryBusiness",
  "sourceName": "contracts/CategoryBusiness.sol",
  "abi": [
    {
      "inputs": [],
      "name": "AccessControlBadConfirmation",
      "type": "error"
    },
    {
      "inputs": [
        {
          "internalType": "address",
          "name": "account",
          "type": "address"
        },
        {
          "internalType": "bytes32",
          "name": "neededRole",
          "type": "bytes32"
        }
      ],
      "name": "AccessControlUnauthorizedAccount",
      "type": "error"
    },
    {
      "inputs": [],
      "name": "InvalidInitialization",
      "type": "error"
    },
    {
      "inputs": [],
      "name": "NotInitializing",
      "type": "error"
    },
    {
      "anonymous": false,
      "inputs": [
        {
          "indexed": false,
          "internalType": "uint64",
          "name": "version",
          "type": "uint64"
        }
      ],
      "name": "Initialized",
      "type": "event"
    },
    {
      "anonymous": false,
      "inputs": [
        {
          "indexed": false,
          "internalType": "uint256",
          "name": "specID",
          "type": "uint256"
        },
        {
          "indexed": false,
          "internalType": "uint256",
          "name": "projectID",
          "type": "uint256"
        },
        {
          "indexed": false,
          "internalType": "uint256",
          "name": "splineID",
          "type": "uint256"
        },
        {
          "indexed": false,
          "internalType": "uint256",
          "name": "splineCounter",
          "type": "uint256"
        },
        {
          "indexed": false,
          "internalType": "uint256",
          "name": "amount",
          "type": "uint256"
        },
        {
          "indexed": false,
          "internalType": "address",
          "name": "token",
          "type": "address"
        }
      ],
      "name": "Paycheck",
      "type": "event"
    },
    {
      "anonymous": false,
      "inputs": [
        {
          "indexed": true,
          "internalType": "bytes32",
          "name": "role",
          "type": "bytes32"
        },
        {
          "indexed": true,
          "internalType": "bytes32",
          "name": "previousAdminRole",
          "type": "bytes32"
        },
        {
          "indexed": true,
          "internalType": "bytes32",
          "name": "newAdminRole",
          "type": "bytes32"
        }
      ],
      "name": "RoleAdminChanged",
      "type": "event"
    },
    {
      "anonymous": false,
      "inputs": [
        {
          "indexed": true,
          "internalType": "bytes32",
          "name": "role",
          "type": "bytes32"
        },
        {
          "indexed": true,
          "internalType": "address",
          "name": "account",
          "type": "address"
        },
        {
          "indexed": true,
          "internalType": "address",
          "name": "sender",
          "type": "address"
        }
      ],
      "name": "RoleGranted",
      "type": "event"
    },
    {
      "anonymous": false,
      "inputs": [
        {
          "indexed": true,
          "internalType": "bytes32",
          "name": "role",
          "type": "bytes32"
        },
        {
          "indexed": true,
          "internalType": "address",
          "name": "account",
          "type": "address"
        },
        {
          "indexed": true,
          "internalType": "address",
          "name": "sender",
          "type": "address"
        }
      ],
      "name": "RoleRevoked",
      "type": "event"
    },
    {
      "inputs": [],
      "name": "DEFAULT_ADMIN_ROLE",
      "outputs": [
        {
          "internalType": "bytes32",
          "name": "",
          "type": "bytes32"
        }
      ],
      "stateMutability": "view",
      "type": "function"
    },
    {
      "inputs": [],
      "name": "HYPERPAYMENT_ROLE",
      "outputs": [
        {
          "internalType": "bytes32",
          "name": "",
          "type": "bytes32"
        }
      ],
      "stateMutability": "view",
      "type": "function"
    },
    {
      "inputs": [],
      "name": "SERVER_ROLE",
      "outputs": [
        {
          "internalType": "bytes32",
          "name": "",
          "type": "bytes32"
        }
      ],
      "stateMutability": "view",
      "type": "function"
    },
    {
      "inputs": [],
      "name": "WITHDRAWER_ROLE",
      "outputs": [
        {
          "internalType": "bytes32",
          "name": "",
          "type": "bytes32"
        }
      ],
      "stateMutability": "view",
      "type": "function"
    },
    {
      "inputs": [
        {
          "internalType": "bytes",
          "name": "payload",
          "type": "bytes"
        }
      ],
      "name": "decodePayload",
      "outputs": [
        {
          "internalType": "string",
          "name": "",
          "type": "string"
        },
        {
          "internalType": "string",
          "name": "",
          "type": "string"
        },
        {
          "internalType": "string",
          "name": "",
          "type": "string"
        },
        {
          "internalType": "address",
          "name": "",
          "type": "address"
        }
      ],
      "stateMutability": "pure",
      "type": "function"
    },
    {
      "inputs": [
        {
          "internalType": "string",
          "name": "purl",
          "type": "string"
        },
        {
          "internalType": "string",
          "name": "username",
          "type": "string"
        },
        {
          "internalType": "string",
          "name": "authProvider",
          "type": "string"
        },
        {
          "internalType": "address",
          "name": "withdrawer",
          "type": "address"
        }
      ],
      "name": "encodePayload",
      "outputs": [
        {
          "internalType": "bytes",
          "name": "",
          "type": "bytes"
        }
      ],
      "stateMutability": "pure",
      "type": "function"
    },
    {
      "inputs": [
        {
          "internalType": "uint256",
          "name": "",
          "type": "uint256"
        },
        {
          "internalType": "uint256",
          "name": "",
          "type": "uint256"
        },
        {
          "internalType": "bytes",
          "name": "",
          "type": "bytes"
        }
      ],
      "name": "getInitialProduct",
      "outputs": [
        {
          "internalType": "string",
          "name": "",
          "type": "string"
        },
        {
          "internalType": "uint256",
          "name": "",
          "type": "uint256"
        }
      ],
      "stateMutability": "pure",
      "type": "function"
    },
    {
      "inputs": [
        {
          "internalType": "bytes32",
          "name": "role",
          "type": "bytes32"
        }
      ],
      "name": "getRoleAdmin",
      "outputs": [
        {
          "internalType": "bytes32",
          "name": "",
          "type": "bytes32"
        }
      ],
      "stateMutability": "view",
      "type": "function"
    },
    {
      "inputs": [
        {
          "internalType": "bytes32",
          "name": "role",
          "type": "bytes32"
        },
        {
          "internalType": "address",
          "name": "account",
          "type": "address"
        }
      ],
      "name": "grantRole",
      "outputs": [],
      "stateMutability": "nonpayable",
      "type": "function"
    },
    {
      "inputs": [
        {
          "internalType": "bytes32",
          "name": "role",
          "type": "bytes32"
        },
        {
          "internalType": "address",
          "name": "account",
          "type": "address"
        }
      ],
      "name": "hasRole",
      "outputs": [
        {
          "internalType": "bool",
          "name": "",
          "type": "bool"
        }
      ],
      "stateMutability": "view",
      "type": "function"
    },
    {
      "inputs": [],
      "name": "hodleToken",
      "outputs": [
        {
          "internalType": "contract IERC20",
          "name": "",
          "type": "address"
        }
      ],
      "stateMutability": "view",
      "type": "function"
    },
    {
      "inputs": [],
      "name": "initialize",
      "outputs": [],
      "stateMutability": "nonpayable",
      "type": "function"
    },
    {
      "inputs": [
        {
          "internalType": "uint256",
          "name": "specID",
          "type": "uint256"
        },
        {
          "internalType": "uint256",
          "name": "projectID",
          "type": "uint256"
        },
        {
          "internalType": "uint256",
          "name": "splineID",
          "type": "uint256"
        },
        {
          "internalType": "uint256",
          "name": "splineCounter",
          "type": "uint256"
        },
        {
          "internalType": "address",
          "name": "token",
          "type": "address"
        },
        {
          "internalType": "uint256",
          "name": "amount",
          "type": "uint256"
        }
      ],
      "name": "paycheck",
      "outputs": [],
      "stateMutability": "nonpayable",
      "type": "function"
    },
    {
      "inputs": [
        {
          "internalType": "uint256",
          "name": "",
          "type": "uint256"
        },
        {
          "internalType": "uint256",
          "name": "",
          "type": "uint256"
        }
      ],
      "name": "projects",
      "outputs": [
        {
          "internalType": "address",
          "name": "token",
          "type": "address"
        },
        {
          "internalType": "uint256",
          "name": "amount",
          "type": "uint256"
        },
        {
          "internalType": "address",
          "name": "withdrawer",
          "type": "address"
        },
        {
          "internalType": "string",
          "name": "purl",
          "type": "string"
        },
        {
          "internalType": "string",
          "name": "username",
          "type": "string"
        },
        {
          "internalType": "string",
          "name": "authProvider",
          "type": "string"
        }
      ],
      "stateMutability": "view",
      "type": "function"
    },
    {
      "inputs": [
        {
          "internalType": "uint256",
          "name": "specID",
          "type": "uint256"
        },
        {
          "internalType": "uint256",
          "name": "projectID",
          "type": "uint256"
        },
        {
          "internalType": "bytes",
          "name": "payload",
          "type": "bytes"
        }
      ],
      "name": "registerUser",
      "outputs": [
        {
          "internalType": "bool",
          "name": "",
          "type": "bool"
        }
      ],
      "stateMutability": "nonpayable",
      "type": "function"
    },
    {
      "inputs": [
        {
          "internalType": "bytes32",
          "name": "role",
          "type": "bytes32"
        },
        {
          "internalType": "address",
          "name": "callerConfirmation",
          "type": "address"
        }
      ],
      "name": "renounceRole",
      "outputs": [],
      "stateMutability": "nonpayable",
      "type": "function"
    },
    {
      "inputs": [],
      "name": "resourceConverter",
      "outputs": [
        {
          "internalType": "contract ResourceConverter",
          "name": "",
          "type": "address"
        }
      ],
      "stateMutability": "view",
      "type": "function"
    },
    {
      "inputs": [
        {
          "internalType": "bytes32",
          "name": "role",
          "type": "bytes32"
        },
        {
          "internalType": "address",
          "name": "account",
          "type": "address"
        }
      ],
      "name": "revokeRole",
      "outputs": [],
      "stateMutability": "nonpayable",
      "type": "function"
    },
    {
      "inputs": [
        {
          "internalType": "address",
          "name": "_tokenAddr",
          "type": "address"
        }
      ],
      "name": "setHodleToken",
      "outputs": [],
      "stateMutability": "nonpayable",
      "type": "function"
    },
    {
      "inputs": [
        {
          "internalType": "address",
          "name": "_addr",
          "type": "address"
        }
      ],
      "name": "setResourceConverter",
      "outputs": [],
      "stateMutability": "nonpayable",
      "type": "function"
    },
    {
      "inputs": [
        {
          "internalType": "uint256",
          "name": "specID",
          "type": "uint256"
        },
        {
          "internalType": "uint256",
          "name": "projectID",
          "type": "uint256"
        },
        {
          "internalType": "address",
          "name": "_addr",
          "type": "address"
        }
      ],
      "name": "setWithdrawer",
      "outputs": [],
      "stateMutability": "nonpayable",
      "type": "function"
    },
    {
      "inputs": [
        {
          "internalType": "bytes4",
          "name": "interfaceId",
          "type": "bytes4"
        }
      ],
      "name": "supportsInterface",
      "outputs": [
        {
          "internalType": "bool",
          "name": "",
          "type": "bool"
        }
      ],
      "stateMutability": "view",
      "type": "function"
    },
    {
      "inputs": [
        {
          "internalType": "uint256",
          "name": "specID",
          "type": "uint256"
        },
        {
          "internalType": "uint256",
          "name": "projectID",
          "type": "uint256"
        },
        {
          "internalType": "uint256",
          "name": "amount",
          "type": "uint256"
        }
      ],
      "name": "withdraw",
      "outputs": [],
      "stateMutability": "nonpayable",
      "type": "function"
    },
    {
      "inputs": [
        {
          "internalType": "uint256",
          "name": "specID",
          "type": "uint256"
        },
        {
          "internalType": "uint256",
          "name": "projectID",
          "type": "uint256"
        }
      ],
      "name": "withdrawAll",
      "outputs": [],
      "stateMutability": "nonpayable",
      "type": "function"
    }
  ],
  "bytecode": "0x6080604052348015600f57600080fd5b50611e5b8061001f6000396000f3fe608060405234801561001057600080fd5b50600436106101585760003560e01c80636c13e065116100c35780638adbddb01161007c5780638adbddb01461031157806391d1485414610326578063a217fddf14610339578063a41fe49f14610341578063ca68ec8614610354578063d547741f1461036757600080fd5b80636c13e065146102ab5780637aff49d7146102be5780638129fc1c146102d157806385818e72146102d957806385f438c1146101ba57806389b7b6ec146102fe57600080fd5b8063248a9ca311610115578063248a9ca31461022b5780632f2ff15d1461023e57806336568abe146102515780636560497c14610264578063657ec4a31461027757806367df40881461029857600080fd5b806301ffc9a71461015d5780630a0ef1fb1461018557806312e141a91461019a57806318cf2834146101ba578063197c6e77146101dd5780631fcc7b0514610200575b600080fd5b61017061016b3660046115da565b61037a565b60405190151581526020015b60405180910390f35b610198610193366004611620565b6103b1565b005b6101ad6101a8366004611724565b610405565b60405161017c9190611818565b6101cf600080516020611da683398151915281565b60405190815260200161017c565b6101f06101eb36600461182b565b61043a565b60405161017c949392919061187b565b600054610213906001600160a01b031681565b6040516001600160a01b03909116815260200161017c565b6101cf6102393660046118ce565b61046e565b61019861024c3660046118e7565b610490565b61019861025f3660046118e7565b6104b2565b610198610272366004611917565b6104ea565b61028a610285366004611934565b610525565b60405161017c9291906119b5565b6101986102a6366004611917565b61056a565b6101986102b93660046119d7565b6105a5565b6101986102cc366004611a2c565b610bb3565b610198610cc4565b6102ec6102e7366004611a2c565b610e0b565b60405161017c96959493929190611a4e565b600154610213906001600160a01b031681565b6101cf600080516020611e0683398151915281565b6101706103343660046118e7565b610fef565b6101cf600081565b61019861034f366004611ab4565b611027565b610170610362366004611934565b6110b8565b6101986103753660046118e7565b61124d565b60006001600160e01b03198216637965db0b60e01b14806103ab57506301ffc9a760e01b6001600160e01b03198316145b92915050565b600080516020611da68339815191526103c981611269565b506000928352600260208181526040808620948652939052919092200180546001600160a01b0319166001600160a01b03909216919091179055565b6060600085858585604051602001610420949392919061187b565b60408051808303601f190181529190529695505050505050565b606080606060008060008060008880602001905181019061045b9190611b25565b929c919b50995090975095505050505050565b6000908152600080516020611de6833981519152602052604090206001015490565b6104998261046e565b6104a281611269565b6104ac8383611276565b50505050565b6001600160a01b03811633146104db5760405163334bd91960e11b815260040160405180910390fd5b6104e5828261131b565b505050565b600080516020611da683398151915261050281611269565b50600180546001600160a01b0319166001600160a01b0392909216919091179055565b60405162461bcd60e51b815260206004820152600f60248201526e139bdd081a5b5c1b195b595b9d1959608a1b60448201526060906000906064015b60405180910390fd5b600080516020611da683398151915261058281611269565b50600080546001600160a01b0319166001600160a01b0392909216919091179055565b600080516020611e068339815191526105bd81611269565b60008781526002602081815260408084208a855290915290912001546001600160a01b03166108d8576001546001600160a01b031661062f5760405162461bcd60e51b815260206004820152600e60248201526d2737903437b23632903a37b5b2b760911b6044820152606401610561565b6001546001600160a01b03848116911614610836576000546001600160a01b03166106945760405162461bcd60e51b81526020600482015260156024820152742737903932b9b7bab931b29031b7b73b32b93a32b960591b6044820152606401610561565b60005460405163a9059cbb60e01b81526001600160a01b039182166004820152602481018490529084169063a9059cbb906044016020604051808303816000875af11580156106e7573d6000803e3d6000fd5b505050506040513d601f19601f8201168201806040525081019061070b9190611bbe565b506000805460015460405163b66102df60e01b8152600481018690526001600160a01b038781166024830152918216604482015291169063b66102df906064016020604051808303816000875af115801561076a573d6000803e3d6000fd5b505050506040513d601f19601f8201168201806040525081019061078e9190611be0565b60008981526002602090815260408083208b84529091528120600101805492935083929091906107bf908490611c0f565b90915550506001805460008a81526002602090815260408083208c84529091529081902080546001600160a01b0319166001600160a01b0393841617905591549151600080516020611dc683398151915292610828928c928c928c928c92899290911690611c22565b60405180910390a150610baa565b600087815260026020908152604080832089845290915281206001018054849290610862908490611c0f565b90915550506001805460008981526002602090815260408083208b84529091529081902080546001600160a01b0319166001600160a01b0393841617905591549151600080516020611dc6833981519152926108cb928b928b928b928b928a9290911690611c22565b60405180910390a1610baa565b600087815260026020908152604080832089845290915290206001015415610b165760008781526002602090815260408083208984529091529020546001600160a01b03848116911614610b16576000546001600160a01b03166109765760405162461bcd60e51b81526020600482015260156024820152742737903932b9b7bab931b29031b7b73b32b93a32b960591b6044820152606401610561565b6000878152600260209081526040808320898452909152808220549154905163a9059cbb60e01b81526001600160a01b0391821660048201526024810185905291169063a9059cbb906044016020604051808303816000875af11580156109e1573d6000803e3d6000fd5b505050506040513d601f19601f82011682018060405250810190610a059190611bbe565b50600080548882526002602090815260408084208a855290915280832060018101549054915163b66102df60e01b815260048101919091526001600160a01b03918216602482015286821660448201528592919091169063b66102df906064016020604051808303816000875af1158015610a84573d6000803e3d6000fd5b505050506040513d601f19601f82011682018060405250810190610aa89190611be0565b610ab29190611c0f565b60008981526002602090815260408083208b8452909152908190206001810183905580546001600160a01b0319166001600160a01b03881617905551909150600080516020611dc683398151915290610828908a908a908a908a9089908b90611c22565b600087815260026020908152604080832089845290915281206001018054849290610b42908490611c0f565b909155505060008781526002602090815260408083208984529091529081902080546001600160a01b0319166001600160a01b03861617905551600080516020611dc683398151915290610ba190899089908990899088908a90611c22565b60405180910390a15b50505050505050565b60008281526002602081815260408084208585529091529091200154829082906001600160a01b0316331480610bfc5750610bfc600080516020611da683398151915233610fef565b610c395760405162461bcd60e51b815260206004820152600e60248201526d2737ba103bb4ba34323930bbb2b960911b6044820152606401610561565b6000848152600260209081526040808320868452909152902060010154610c9a5760405162461bcd60e51b81526020600482015260156024820152744e6f20746f6b656e7320746f20776974686472617760581b6044820152606401610561565b60008481526002602090815260408083208684529091529020600101546104ac9085908590611397565b6000610cce611574565b805490915060ff600160401b82041615906001600160401b0316600081158015610cf55750825b90506000826001600160401b03166001148015610d115750303b155b905081158015610d1f575080155b15610d3d5760405163f92ee8a960e01b815260040160405180910390fd5b845467ffffffffffffffff191660011785558315610d6757845460ff60401b1916600160401b1785555b610d72600033611276565b50610d8b600080516020611da683398151915233611276565b50610da4600080516020611da683398151915233611276565b50610dbd600080516020611e0683398151915233611276565b508315610e0457845460ff60401b19168555604051600181527fc7f505b2f371ae2175ee4913f4499e1f2633a7b5936321eed1cdaeb6115181d29060200160405180910390a15b5050505050565b6002602081815260009384526040808520909152918352912080546001820154928201546003830180546001600160a01b0393841695949290931692610e5090611c53565b80601f0160208091040260200160405190810160405280929190818152602001828054610e7c90611c53565b8015610ec95780601f10610e9e57610100808354040283529160200191610ec9565b820191906000526020600020905b815481529060010190602001808311610eac57829003601f168201915b505050505090806004018054610ede90611c53565b80601f0160208091040260200160405190810160405280929190818152602001828054610f0a90611c53565b8015610f575780601f10610f2c57610100808354040283529160200191610f57565b820191906000526020600020905b815481529060010190602001808311610f3a57829003601f168201915b505050505090806005018054610f6c90611c53565b80601f0160208091040260200160405190810160405280929190818152602001828054610f9890611c53565b8015610fe55780601f10610fba57610100808354040283529160200191610fe5565b820191906000526020600020905b815481529060010190602001808311610fc857829003601f168201915b5050505050905086565b6000918252600080516020611de6833981519152602090815260408084206001600160a01b0393909316845291905290205460ff1690565b60008381526002602081815260408084208685529091529091200154839083906001600160a01b03163314806110705750611070600080516020611da683398151915233610fef565b6110ad5760405162461bcd60e51b815260206004820152600e60248201526d2737ba103bb4ba34323930bbb2b960911b6044820152606401610561565b610e04858585611397565b6000600080516020611e068339815191526110d281611269565b60008060008061111788888080601f01602080910402602001604051908101604052809392919081815260200183838082843760009201919091525061043a92505050565b935093509350935060008351116111675760405162461bcd60e51b8152602060048201526014602482015273139bc8155cd95c9b985b59481c1c9bdd9a59195960621b6044820152606401610561565b60008251116111ab5760405162461bcd60e51b815260206004820152601060248201526f27379020baba3410383937bb34b232b960811b6044820152606401610561565b60008a81526002602081815260408084208d855290915290912090810180546001600160a01b0319166001600160a01b0384161790556003016111ee8582611cd4565b5060008a81526002602090815260408083208c845290915290206004016112158482611cd4565b5060008a81526002602090815260408083208c8452909152902060050161123c8382611cd4565b5060019a9950505050505050505050565b6112568261046e565b61125f81611269565b6104ac838361131b565b611273813361159d565b50565b6000600080516020611de68339815191526112918484610fef565b611311576000848152602082815260408083206001600160a01b03871684529091529020805460ff191660011790556112c73390565b6001600160a01b0316836001600160a01b0316857f2f8788117e7eff1d82e926ec794901d17c78024a50270940304540a733656f0d60405160405180910390a460019150506103ab565b60009150506103ab565b6000600080516020611de68339815191526113368484610fef565b15611311576000848152602082815260408083206001600160a01b0387168085529252808320805460ff1916905551339287917ff6391f5c32d9c69d2a47ea670b442974b53935d1edc7fd64eb21e047a839171b9190a460019150506103ab565b600081116113dd5760405162461bcd60e51b81526020600482015260136024820152720416d6f756e742063616e206e6f74206265203606c1b6044820152606401610561565b600083815260026020818152604080842086855290915290912001546001600160a01b031633146114505760405162461bcd60e51b815260206004820152601a60248201527f43616c6c6572206973206e6f74206120776974686472617765720000000000006044820152606401610561565b60008381526002602090815260408083208584529091529020600101548111156114b05760405162461bcd60e51b81526020600482015260116024820152704e6f7420656e6f75676820746f6b656e7360781b6044820152606401610561565b60008381526002602090815260408083208584529091529081902054905163a9059cbb60e01b8152336004820152602481018390526001600160a01b039091169063a9059cbb906044016020604051808303816000875af1158015611519573d6000803e3d6000fd5b505050506040513d601f19601f8201168201806040525081019061153d9190611bbe565b5060008381526002602090815260408083208584529091528120600101805483929061156a908490611d92565b9091555050505050565b6000807ff0c57e16840df040f15088dc2f81fe391c3923bec73e23a9662efc9c229c6a006103ab565b6115a78282610fef565b6115d65760405163e2517d3f60e01b81526001600160a01b038216600482015260248101839052604401610561565b5050565b6000602082840312156115ec57600080fd5b81356001600160e01b03198116811461160457600080fd5b9392505050565b6001600160a01b038116811461127357600080fd5b60008060006060848603121561163557600080fd5b8335925060208401359150604084013561164e8161160b565b809150509250925092565b634e487b7160e01b600052604160045260246000fd5b604051601f8201601f191681016001600160401b038111828210171561169757611697611659565b604052919050565b60006001600160401b038211156116b8576116b8611659565b50601f01601f191660200190565b60006116d96116d48461169f565b61166f565b90508281528383830111156116ed57600080fd5b828260208301376000602084830101529392505050565b600082601f83011261171557600080fd5b611604838335602085016116c6565b6000806000806080858703121561173a57600080fd5b84356001600160401b0381111561175057600080fd5b61175c87828801611704565b94505060208501356001600160401b0381111561177857600080fd5b61178487828801611704565b93505060408501356001600160401b038111156117a057600080fd5b6117ac87828801611704565b92505060608501356117bd8161160b565b939692955090935050565b60005b838110156117e35781810151838201526020016117cb565b50506000910152565b600081518084526118048160208601602086016117c8565b601f01601f19169290920160200192915050565b60208152600061160460208301846117ec565b60006020828403121561183d57600080fd5b81356001600160401b0381111561185357600080fd5b8201601f8101841361186457600080fd5b611873848235602084016116c6565b949350505050565b60808152600061188e60808301876117ec565b82810360208401526118a081876117ec565b905082810360408401526118b481866117ec565b91505060018060a01b038316606083015295945050505050565b6000602082840312156118e057600080fd5b5035919050565b600080604083850312156118fa57600080fd5b82359150602083013561190c8161160b565b809150509250929050565b60006020828403121561192957600080fd5b81356116048161160b565b6000806000806060858703121561194a57600080fd5b843593506020850135925060408501356001600160401b0381111561196e57600080fd5b8501601f8101871361197f57600080fd5b80356001600160401b0381111561199557600080fd5b8760208284010111156119a757600080fd5b949793965060200194505050565b6040815260006119c860408301856117ec565b90508260208301529392505050565b60008060008060008060c087890312156119f057600080fd5b863595506020870135945060408701359350606087013592506080870135611a178161160b565b9598949750929591949360a090920135925050565b60008060408385031215611a3f57600080fd5b50508035926020909101359150565b6001600160a01b038781168252602082018790528516604082015260c060608201819052600090611a81908301866117ec565b8281036080840152611a9381866117ec565b905082810360a0840152611aa781856117ec565b9998505050505050505050565b600080600060608486031215611ac957600080fd5b505081359360208301359350604090920135919050565b600082601f830112611af157600080fd5b8151611aff6116d48261169f565b818152846020838601011115611b1457600080fd5b6118738260208301602087016117c8565b60008060008060808587031215611b3b57600080fd5b84516001600160401b03811115611b5157600080fd5b611b5d87828801611ae0565b94505060208501516001600160401b03811115611b7957600080fd5b611b8587828801611ae0565b93505060408501516001600160401b03811115611ba157600080fd5b611bad87828801611ae0565b92505060608501516117bd8161160b565b600060208284031215611bd057600080fd5b8151801515811461160457600080fd5b600060208284031215611bf257600080fd5b5051919050565b634e487b7160e01b600052601160045260246000fd5b808201808211156103ab576103ab611bf9565b95865260208601949094526040850192909252606084015260808301526001600160a01b031660a082015260c00190565b600181811c90821680611c6757607f821691505b602082108103611c8757634e487b7160e01b600052602260045260246000fd5b50919050565b601f8211156104e557806000526020600020601f840160051c81016020851015611cb45750805b601f840160051c820191505b81811015610e045760008155600101611cc0565b81516001600160401b03811115611ced57611ced611659565b611d0181611cfb8454611c53565b84611c8d565b6020601f821160018114611d355760008315611d1d5750848201515b600019600385901b1c1916600184901b178455610e04565b600084815260208120601f198516915b82811015611d655787850151825560209485019460019092019101611d45565b5084821015611d835786840151600019600387901b60f8161c191681555b50505050600190811b01905550565b818103818111156103ab576103ab611bf956fea8a7bc421f721cb936ea99efdad79237e6ee0b871a2a08cf648691f9584cdc77a8052afb0639de5ef45263bbe95f434ae06d11ebc97235159b614fcddfd3b19402dd7bc7dec4dceedda775e58dd541e08a116c6c53815c0bd028192f7b626800fc24bd2866d4f21a3c7a09cde981207397f26e9f9fadb9875868f03c1c5228eea2646970667358221220a8cdf1767e7bfa543208d8abef1307621fb1d84750ca2323f0bc07f98d7b473864736f6c634300081c0033",
  "linkReferences": {},
  "deployedLinkReferences": {}
}