{
  "_format": "hh-sol-artifact-1",
  "contractName": "CategorySBOM",
  "sourceName": "contracts/CategorySBOM.sol",
  "abi": [
    {
      "inputs": [],
      "name": "AccessControlBadConfirmation",
      "type": "error"
    },
    {
      "inputs": [
        {
          "internalType": "address",
          "name": "account",
          "type": "address"
        },
        {
          "internalType": "bytes32",
          "name": "neededRole",
          "type": "bytes32"
        }
      ],
      "name": "AccessControlUnauthorizedAccount",
      "type": "error"
    },
    {
      "inputs": [],
      "name": "InvalidInitialization",
      "type": "error"
    },
    {
      "inputs": [],
      "name": "NotInitializing",
      "type": "error"
    },
    {
      "anonymous": false,
      "inputs": [
        {
          "indexed": false,
          "internalType": "uint64",
          "name": "version",
          "type": "uint64"
        }
      ],
      "name": "Initialized",
      "type": "event"
    },
    {
      "anonymous": false,
      "inputs": [
        {
          "indexed": false,
          "internalType": "uint256",
          "name": "specID",
          "type": "uint256"
        },
        {
          "indexed": false,
          "internalType": "uint256",
          "name": "projectID",
          "type": "uint256"
        },
        {
          "indexed": false,
          "internalType": "uint256",
          "name": "packageAmount",
          "type": "uint256"
        },
        {
          "indexed": false,
          "internalType": "uint256",
          "name": "splineID",
          "type": "uint256"
        },
        {
          "indexed": false,
          "internalType": "uint256",
          "name": "splineCounter",
          "type": "uint256"
        },
        {
          "indexed": false,
          "internalType": "uint256",
          "name": "amount",
          "type": "uint256"
        },
        {
          "indexed": false,
          "internalType": "address",
          "name": "token",
          "type": "address"
        }
      ],
      "name": "Paycheck",
      "type": "event"
    },
    {
      "anonymous": false,
      "inputs": [
        {
          "indexed": true,
          "internalType": "bytes32",
          "name": "role",
          "type": "bytes32"
        },
        {
          "indexed": true,
          "internalType": "bytes32",
          "name": "previousAdminRole",
          "type": "bytes32"
        },
        {
          "indexed": true,
          "internalType": "bytes32",
          "name": "newAdminRole",
          "type": "bytes32"
        }
      ],
      "name": "RoleAdminChanged",
      "type": "event"
    },
    {
      "anonymous": false,
      "inputs": [
        {
          "indexed": true,
          "internalType": "bytes32",
          "name": "role",
          "type": "bytes32"
        },
        {
          "indexed": true,
          "internalType": "address",
          "name": "account",
          "type": "address"
        },
        {
          "indexed": true,
          "internalType": "address",
          "name": "sender",
          "type": "address"
        }
      ],
      "name": "RoleGranted",
      "type": "event"
    },
    {
      "anonymous": false,
      "inputs": [
        {
          "indexed": true,
          "internalType": "bytes32",
          "name": "role",
          "type": "bytes32"
        },
        {
          "indexed": true,
          "internalType": "address",
          "name": "account",
          "type": "address"
        },
        {
          "indexed": true,
          "internalType": "address",
          "name": "sender",
          "type": "address"
        }
      ],
      "name": "RoleRevoked",
      "type": "event"
    },
    {
      "inputs": [],
      "name": "DEFAULT_ADMIN_ROLE",
      "outputs": [
        {
          "internalType": "bytes32",
          "name": "",
          "type": "bytes32"
        }
      ],
      "stateMutability": "view",
      "type": "function"
    },
    {
      "inputs": [],
      "name": "HYPERPAYMENT_ROLE",
      "outputs": [
        {
          "internalType": "bytes32",
          "name": "",
          "type": "bytes32"
        }
      ],
      "stateMutability": "view",
      "type": "function"
    },
    {
      "inputs": [],
      "name": "cascadeAccount",
      "outputs": [
        {
          "internalType": "contract CascadeAccount",
          "name": "",
          "type": "address"
        }
      ],
      "stateMutability": "view",
      "type": "function"
    },
    {
      "inputs": [
        {
          "internalType": "bytes",
          "name": "payload",
          "type": "bytes"
        }
      ],
      "name": "decodePayload",
      "outputs": [
        {
          "internalType": "uint256",
          "name": "",
          "type": "uint256"
        },
        {
          "internalType": "string[]",
          "name": "",
          "type": "string[]"
        }
      ],
      "stateMutability": "pure",
      "type": "function"
    },
    {
      "inputs": [
        {
          "internalType": "uint256",
          "name": "amount",
          "type": "uint256"
        },
        {
          "internalType": "string[]",
          "name": "purls",
          "type": "string[]"
        }
      ],
      "name": "encodePayload",
      "outputs": [
        {
          "internalType": "bytes",
          "name": "",
          "type": "bytes"
        }
      ],
      "stateMutability": "pure",
      "type": "function"
    },
    {
      "inputs": [
        {
          "internalType": "uint256",
          "name": "",
          "type": "uint256"
        },
        {
          "internalType": "uint256",
          "name": "",
          "type": "uint256"
        },
        {
          "internalType": "bytes",
          "name": "",
          "type": "bytes"
        }
      ],
      "name": "getInitialProduct",
      "outputs": [
        {
          "internalType": "string",
          "name": "",
          "type": "string"
        },
        {
          "internalType": "uint256",
          "name": "",
          "type": "uint256"
        }
      ],
      "stateMutability": "pure",
      "type": "function"
    },
    {
      "inputs": [
        {
          "internalType": "bytes32",
          "name": "role",
          "type": "bytes32"
        }
      ],
      "name": "getRoleAdmin",
      "outputs": [
        {
          "internalType": "bytes32",
          "name": "",
          "type": "bytes32"
        }
      ],
      "stateMutability": "view",
      "type": "function"
    },
    {
      "inputs": [
        {
          "internalType": "bytes32",
          "name": "role",
          "type": "bytes32"
        },
        {
          "internalType": "address",
          "name": "account",
          "type": "address"
        }
      ],
      "name": "grantRole",
      "outputs": [],
      "stateMutability": "nonpayable",
      "type": "function"
    },
    {
      "inputs": [
        {
          "internalType": "bytes32",
          "name": "role",
          "type": "bytes32"
        },
        {
          "internalType": "address",
          "name": "account",
          "type": "address"
        }
      ],
      "name": "hasRole",
      "outputs": [
        {
          "internalType": "bool",
          "name": "",
          "type": "bool"
        }
      ],
      "stateMutability": "view",
      "type": "function"
    },
    {
      "inputs": [
        {
          "internalType": "address",
          "name": "_cascadeAddr",
          "type": "address"
        }
      ],
      "name": "initialize",
      "outputs": [],
      "stateMutability": "nonpayable",
      "type": "function"
    },
    {
      "inputs": [
        {
          "internalType": "uint256",
          "name": "",
          "type": "uint256"
        },
        {
          "internalType": "uint256",
          "name": "",
          "type": "uint256"
        }
      ],
      "name": "packageAmount",
      "outputs": [
        {
          "internalType": "uint256",
          "name": "",
          "type": "uint256"
        }
      ],
      "stateMutability": "view",
      "type": "function"
    },
    {
      "inputs": [
        {
          "internalType": "uint256",
          "name": "",
          "type": "uint256"
        },
        {
          "internalType": "uint256",
          "name": "",
          "type": "uint256"
        },
        {
          "internalType": "uint256",
          "name": "",
          "type": "uint256"
        }
      ],
      "name": "packages",
      "outputs": [
        {
          "internalType": "string",
          "name": "",
          "type": "string"
        }
      ],
      "stateMutability": "view",
      "type": "function"
    },
    {
      "inputs": [
        {
          "internalType": "uint256",
          "name": "specID",
          "type": "uint256"
        },
        {
          "internalType": "uint256",
          "name": "projectID",
          "type": "uint256"
        },
        {
          "internalType": "uint256",
          "name": "splineID",
          "type": "uint256"
        },
        {
          "internalType": "uint256",
          "name": "splineCounter",
          "type": "uint256"
        },
        {
          "internalType": "address",
          "name": "token",
          "type": "address"
        },
        {
          "internalType": "uint256",
          "name": "amount",
          "type": "uint256"
        }
      ],
      "name": "paycheck",
      "outputs": [],
      "stateMutability": "nonpayable",
      "type": "function"
    },
    {
      "inputs": [
        {
          "internalType": "uint256",
          "name": "specID",
          "type": "uint256"
        },
        {
          "internalType": "uint256",
          "name": "projectID",
          "type": "uint256"
        },
        {
          "internalType": "bytes",
          "name": "payload",
          "type": "bytes"
        }
      ],
      "name": "registerUser",
      "outputs": [
        {
          "internalType": "bool",
          "name": "",
          "type": "bool"
        }
      ],
      "stateMutability": "nonpayable",
      "type": "function"
    },
    {
      "inputs": [
        {
          "internalType": "bytes32",
          "name": "role",
          "type": "bytes32"
        },
        {
          "internalType": "address",
          "name": "callerConfirmation",
          "type": "address"
        }
      ],
      "name": "renounceRole",
      "outputs": [],
      "stateMutability": "nonpayable",
      "type": "function"
    },
    {
      "inputs": [
        {
          "internalType": "bytes32",
          "name": "role",
          "type": "bytes32"
        },
        {
          "internalType": "address",
          "name": "account",
          "type": "address"
        }
      ],
      "name": "revokeRole",
      "outputs": [],
      "stateMutability": "nonpayable",
      "type": "function"
    },
    {
      "inputs": [
        {
          "internalType": "bytes4",
          "name": "interfaceId",
          "type": "bytes4"
        }
      ],
      "name": "supportsInterface",
      "outputs": [
        {
          "internalType": "bool",
          "name": "",
          "type": "bool"
        }
      ],
      "stateMutability": "view",
      "type": "function"
    }
  ],
  "bytecode": "0x6080604052348015600f57600080fd5b5061151f8061001f6000396000f3fe608060405234801561001057600080fd5b506004361061010b5760003560e01c8063657ec4a3116100a25780639e044e0d116100715780639e044e0d1461025c578063a217fddf14610287578063c4d66de81461028f578063ca68ec86146102a2578063d547741f146102b557600080fd5b8063657ec4a3146102005780636c13e065146102215780638adbddb01461023457806391d148541461024957600080fd5b806336568abe116100de57806336568abe1461018f57806344c733d7146101a25780634fcecaa9146101c2578063520a37f2146101ed57600080fd5b806301ffc9a714610110578063197c6e7714610138578063248a9ca3146101595780632f2ff15d1461017a575b600080fd5b61012361011e366004610c72565b6102c8565b60405190151581526020015b60405180910390f35b61014b610146366004610d4e565b6102ff565b60405161012f929190610dee565b61016c610167366004610e5a565b610326565b60405190815260200161012f565b61018d610188366004610e8f565b610348565b005b61018d61019d366004610e8f565b61036a565b6101b56101b0366004610ebb565b6103a2565b60405161012f9190610ee7565b6000546101d5906001600160a01b031681565b6040516001600160a01b03909116815260200161012f565b6101b56101fb366004610f1d565b61044d565b61021361020e366004610ff2565b61047c565b60405161012f929190611073565b61018d61022f366004611095565b6104c1565b61016c6000805160206114ca83398151915281565b610123610257366004610e8f565b6107b5565b61016c61026a3660046110e8565b600160209081526000928352604080842090915290825290205481565b61016c600081565b61018d61029d36600461110a565b6107ed565b6101236102b0366004610ff2565b61091d565b61018d6102c3366004610e8f565b610ac2565b60006001600160e01b03198216637965db0b60e01b14806102f957506301ffc9a760e01b6001600160e01b03198316145b92915050565b600060606000808480602001905181019061031a9190611125565b90969095509350505050565b60009081526000805160206114aa833981519152602052604090206001015490565b61035182610326565b61035a81610ade565b6103648383610aeb565b50505050565b6001600160a01b03811633146103935760405163334bd91960e11b815260040160405180910390fd5b61039d8282610b90565b505050565b6002602090815260009384526040808520825292845282842090528252902080546103cc90611211565b80601f01602080910402602001604051908101604052809291908181526020018280546103f890611211565b80156104455780601f1061041a57610100808354040283529160200191610445565b820191906000526020600020905b81548152906001019060200180831161042857829003601f168201915b505050505081565b606060008383604051602001610464929190610dee565b60408051808303601f19018152919052949350505050565b60405162461bcd60e51b815260206004820152600f60248201526e139bdd081a5b5c1b195b595b9d1959608a1b60448201526060906000906064015b60405180910390fd5b6000805160206114ca8339815191526104d981610ade565b600060015b60008981526001602090815260408083208b845290915290205481116105525760008981526002602090815260408083208b845282528083208484529091528120805461052a90611211565b90501115610540578161053c81611261565b9250505b8061054a81611261565b9150506104de565b50600081116105915760405162461bcd60e51b815260206004820152600b60248201526a4e6f207061636b6167657360a81b60448201526064016104b8565b600061059d828561127a565b905060015b60008a81526001602090815260408083208c8452909152902054811161072f5760008a81526002602090815260408083208c84528252808320848452909152902080546105ee90611211565b15905061071d5760005460405163a9059cbb60e01b81526001600160a01b039182166004820152602481018490529087169063a9059cbb906044016020604051808303816000875af1158015610648573d6000803e3d6000fd5b505050506040513d601f19601f8201168201806040525081019061066c919061129c565b5060008054906101000a90046001600160a01b03166001600160a01b03166314213f4f600260008d815260200190815260200160002060008c8152602001908152602001600020600084815260200190815260200160002088858e8e8e6040518763ffffffff1660e01b81526004016106ea969594939291906112be565b600060405180830381600087803b15801561070457600080fd5b505af1158015610718573d6000803e3d6000fd5b505050505b8061072781611261565b9150506105a2565b5060008981526001602090815260408083208b84528252918290205482518c81529182018b905281830152606081018990526080810188905260a081018690526001600160a01b03871660c082015290517f0f2ea8d7492fae8e20cc047f4a9875a649f504a5fd45bcdf9b0ca5a3bfef8bc69181900360e00190a1505050505050505050565b60009182526000805160206114aa833981519152602090815260408084206001600160a01b0393909316845291905290205460ff1690565b60006107f7610c0c565b805490915060ff600160401b82041615906001600160401b031660008115801561081e5750825b90506000826001600160401b0316600114801561083a5750303b155b905081158015610848575080155b156108665760405163f92ee8a960e01b815260040160405180910390fd5b845467ffffffffffffffff19166001178555831561089057845460ff60401b1916600160401b1785555b600080546001600160a01b0319166001600160a01b0388161781556108b59033610aeb565b506108ce6000805160206114ca83398151915233610aeb565b50831561091557845460ff60401b19168555604051600181527fc7f505b2f371ae2175ee4913f4499e1f2633a7b5936321eed1cdaeb6115181d29060200160405180910390a15b505050505050565b60006000805160206114ca83398151915261093781610ade565b60008061097986868080601f0160208091040260200160405190810160405280939291908181526020018383808284376000920191909152506102ff92505050565b91509150600082116109c15760405162461bcd60e51b81526020600482015260116024820152702737903830b1b5b0b3b2b99033b4bb32b760791b60448201526064016104b8565b60015b828111610a98576000826109d9600184611374565b815181106109e9576109e9611387565b60200260200101515111610a325760405162461bcd60e51b815260206004820152601060248201526f27379020baba3410383937bb34b232b960811b60448201526064016104b8565b81610a3e600183611374565b81518110610a4e57610a4e611387565b60209081029190910181015160008b81526002835260408082208c835284528082208583529093529190912090610a8590826113eb565b5080610a9081611261565b9150506109c4565b50506000968752600160208181526040808a20988a52979052959096209590955550919392505050565b610acb82610326565b610ad481610ade565b6103648383610b90565b610ae88133610c35565b50565b60006000805160206114aa833981519152610b0684846107b5565b610b86576000848152602082815260408083206001600160a01b03871684529091529020805460ff19166001179055610b3c3390565b6001600160a01b0316836001600160a01b0316857f2f8788117e7eff1d82e926ec794901d17c78024a50270940304540a733656f0d60405160405180910390a460019150506102f9565b60009150506102f9565b60006000805160206114aa833981519152610bab84846107b5565b15610b86576000848152602082815260408083206001600160a01b0387168085529252808320805460ff1916905551339287917ff6391f5c32d9c69d2a47ea670b442974b53935d1edc7fd64eb21e047a839171b9190a460019150506102f9565b6000807ff0c57e16840df040f15088dc2f81fe391c3923bec73e23a9662efc9c229c6a006102f9565b610c3f82826107b5565b610c6e5760405163e2517d3f60e01b81526001600160a01b0382166004820152602481018390526044016104b8565b5050565b600060208284031215610c8457600080fd5b81356001600160e01b031981168114610c9c57600080fd5b9392505050565b634e487b7160e01b600052604160045260246000fd5b604051601f8201601f191681016001600160401b0381118282101715610ce157610ce1610ca3565b604052919050565b60006001600160401b03821115610d0257610d02610ca3565b50601f01601f191660200190565b6000610d23610d1e84610ce9565b610cb9565b9050828152838383011115610d3757600080fd5b828260208301376000602084830101529392505050565b600060208284031215610d6057600080fd5b81356001600160401b03811115610d7657600080fd5b8201601f81018413610d8757600080fd5b610d9684823560208401610d10565b949350505050565b60005b83811015610db9578181015183820152602001610da1565b50506000910152565b60008151808452610dda816020860160208601610d9e565b601f01601f19169290920160200192915050565b6000604082018483526040602084015280845180835260608501915060608160051b86010192506020860160005b82811015610e4d57605f19878603018452610e38858351610dc2565b94506020938401939190910190600101610e1c565b5092979650505050505050565b600060208284031215610e6c57600080fd5b5035919050565b80356001600160a01b0381168114610e8a57600080fd5b919050565b60008060408385031215610ea257600080fd5b82359150610eb260208401610e73565b90509250929050565b600080600060608486031215610ed057600080fd5b505081359360208301359350604090920135919050565b602081526000610c9c6020830184610dc2565b60006001600160401b03821115610f1357610f13610ca3565b5060051b60200190565b60008060408385031215610f3057600080fd5b8235915060208301356001600160401b03811115610f4d57600080fd5b8301601f81018513610f5e57600080fd5b8035610f6c610d1e82610efa565b8082825260208201915060208360051b850101925087831115610f8e57600080fd5b602084015b83811015610fe35780356001600160401b03811115610fb157600080fd5b8501603f81018a13610fc257600080fd5b610fd48a602083013560408401610d10565b84525060209283019201610f93565b50809450505050509250929050565b6000806000806060858703121561100857600080fd5b843593506020850135925060408501356001600160401b0381111561102c57600080fd5b8501601f8101871361103d57600080fd5b80356001600160401b0381111561105357600080fd5b87602082840101111561106557600080fd5b949793965060200194505050565b6040815260006110866040830185610dc2565b90508260208301529392505050565b60008060008060008060c087890312156110ae57600080fd5b863595506020870135945060408701359350606087013592506110d360808801610e73565b9598949750929591949360a090920135925050565b600080604083850312156110fb57600080fd5b50508035926020909101359150565b60006020828403121561111c57600080fd5b610c9c82610e73565b6000806040838503121561113857600080fd5b8251915060208301516001600160401b0381111561115557600080fd5b8301601f8101851361116657600080fd5b8051611174610d1e82610efa565b8082825260208201915060208360051b85010192508783111561119657600080fd5b602084015b83811015610fe35780516001600160401b038111156111b957600080fd5b8501603f81018a136111ca57600080fd5b60208101516111db610d1e82610ce9565b8181526040838301018c10156111f057600080fd5b611201826020830160408601610d9e565b855250506020928301920161119b565b600181811c9082168061122557607f821691505b60208210810361124557634e487b7160e01b600052602260045260246000fd5b50919050565b634e487b7160e01b600052601160045260246000fd5b6000600182016112735761127361124b565b5060010190565b60008261129757634e487b7160e01b600052601260045260246000fd5b500490565b6000602082840312156112ae57600080fd5b81518015158114610c9c57600080fd5b60c0815260008088546112d081611211565b8060c086015260018216600081146112ef576001811461130b5761133f565b60ff19831660e087015260e082151560051b870101935061133f565b8b600052602060002060005b8381101561133657815488820160e00152600190910190602001611317565b870160e0019450505b5050506001600160a01b039790971660208301525060408101949094526060840192909252608083015260a090910152919050565b818103818111156102f9576102f961124b565b634e487b7160e01b600052603260045260246000fd5b601f82111561039d57806000526020600020601f840160051c810160208510156113c45750805b601f840160051c820191505b818110156113e457600081556001016113d0565b5050505050565b81516001600160401b0381111561140457611404610ca3565b611418816114128454611211565b8461139d565b6020601f82116001811461144c57600083156114345750848201515b600019600385901b1c1916600184901b1784556113e4565b600084815260208120601f198516915b8281101561147c578785015182556020948501946001909201910161145c565b508482101561149a5786840151600019600387901b60f8161c191681555b50505050600190811b0190555056fe02dd7bc7dec4dceedda775e58dd541e08a116c6c53815c0bd028192f7b626800fc24bd2866d4f21a3c7a09cde981207397f26e9f9fadb9875868f03c1c5228eea2646970667358221220ccc361c9cf0882be48ced87e38bfd1999e54b97278312d03af59a2ccc87d0a9b64736f6c634300081c0033",
  "linkReferences": {},
  "deployedLinkReferences": {}
}