{
  "_format": "hh-sol-artifact-1",
  "contractName": "HyperpaymentV1",
  "sourceName": "contracts/HyperpaymentV1.sol",
  "abi": [
    {
      "inputs": [],
      "name": "AccessControlBadConfirmation",
      "type": "error"
    },
    {
      "inputs": [
        {
          "internalType": "address",
          "name": "account",
          "type": "address"
        },
        {
          "internalType": "bytes32",
          "name": "neededRole",
          "type": "bytes32"
        }
      ],
      "name": "AccessControlUnauthorizedAccount",
      "type": "error"
    },
    {
      "inputs": [],
      "name": "InvalidInitialization",
      "type": "error"
    },
    {
      "inputs": [],
      "name": "NotInitializing",
      "type": "error"
    },
    {
      "anonymous": false,
      "inputs": [
        {
          "indexed": false,
          "internalType": "uint256",
          "name": "specID",
          "type": "uint256"
        },
        {
          "indexed": false,
          "internalType": "uint256",
          "name": "projectID",
          "type": "uint256"
        }
      ],
      "name": "CreateProject",
      "type": "event"
    },
    {
      "anonymous": false,
      "inputs": [
        {
          "indexed": false,
          "internalType": "uint256",
          "name": "specID",
          "type": "uint256"
        },
        {
          "indexed": false,
          "internalType": "string",
          "name": "url",
          "type": "string"
        },
        {
          "indexed": false,
          "internalType": "uint256",
          "name": "categoryCounter",
          "type": "uint256"
        },
        {
          "indexed": false,
          "internalType": "uint256",
          "name": "resourceCounter",
          "type": "uint256"
        },
        {
          "indexed": false,
          "internalType": "uint256",
          "name": "splineCounter",
          "type": "uint256"
        }
      ],
      "name": "CreateSpecification",
      "type": "event"
    },
    {
      "anonymous": false,
      "inputs": [
        {
          "indexed": false,
          "internalType": "uint64",
          "name": "version",
          "type": "uint64"
        }
      ],
      "name": "Initialized",
      "type": "event"
    },
    {
      "anonymous": false,
      "inputs": [
        {
          "indexed": true,
          "internalType": "bytes32",
          "name": "role",
          "type": "bytes32"
        },
        {
          "indexed": true,
          "internalType": "bytes32",
          "name": "previousAdminRole",
          "type": "bytes32"
        },
        {
          "indexed": true,
          "internalType": "bytes32",
          "name": "newAdminRole",
          "type": "bytes32"
        }
      ],
      "name": "RoleAdminChanged",
      "type": "event"
    },
    {
      "anonymous": false,
      "inputs": [
        {
          "indexed": true,
          "internalType": "bytes32",
          "name": "role",
          "type": "bytes32"
        },
        {
          "indexed": true,
          "internalType": "address",
          "name": "account",
          "type": "address"
        },
        {
          "indexed": true,
          "internalType": "address",
          "name": "sender",
          "type": "address"
        }
      ],
      "name": "RoleGranted",
      "type": "event"
    },
    {
      "anonymous": false,
      "inputs": [
        {
          "indexed": true,
          "internalType": "bytes32",
          "name": "role",
          "type": "bytes32"
        },
        {
          "indexed": true,
          "internalType": "address",
          "name": "account",
          "type": "address"
        },
        {
          "indexed": true,
          "internalType": "address",
          "name": "sender",
          "type": "address"
        }
      ],
      "name": "RoleRevoked",
      "type": "event"
    },
    {
      "inputs": [],
      "name": "DEFAULT_ADMIN_ROLE",
      "outputs": [
        {
          "internalType": "bytes32",
          "name": "",
          "type": "bytes32"
        }
      ],
      "stateMutability": "view",
      "type": "function"
    },
    {
      "inputs": [],
      "name": "HYPERPAYMENT_ROLE",
      "outputs": [
        {
          "internalType": "bytes32",
          "name": "",
          "type": "bytes32"
        }
      ],
      "stateMutability": "view",
      "type": "function"
    },
    {
      "inputs": [],
      "name": "MANAGER_ROLE",
      "outputs": [
        {
          "internalType": "bytes32",
          "name": "",
          "type": "bytes32"
        }
      ],
      "stateMutability": "view",
      "type": "function"
    },
    {
      "inputs": [],
      "name": "NATIVE_TOKEN",
      "outputs": [
        {
          "internalType": "address",
          "name": "",
          "type": "address"
        }
      ],
      "stateMutability": "view",
      "type": "function"
    },
    {
      "inputs": [],
      "name": "SCORE_TOKEN",
      "outputs": [
        {
          "internalType": "address",
          "name": "",
          "type": "address"
        }
      ],
      "stateMutability": "view",
      "type": "function"
    },
    {
      "inputs": [],
      "name": "SERVER_ROLE",
      "outputs": [
        {
          "internalType": "bytes32",
          "name": "",
          "type": "bytes32"
        }
      ],
      "stateMutability": "view",
      "type": "function"
    },
    {
      "inputs": [
        {
          "internalType": "uint256",
          "name": "specID",
          "type": "uint256"
        },
        {
          "internalType": "string[]",
          "name": "flowFrom",
          "type": "string[]"
        },
        {
          "internalType": "string[]",
          "name": "flowTo",
          "type": "string[]"
        },
        {
          "internalType": "uint256[]",
          "name": "flowPercentage",
          "type": "uint256[]"
        }
      ],
      "name": "addFlows",
      "outputs": [],
      "stateMutability": "nonpayable",
      "type": "function"
    },
    {
      "inputs": [
        {
          "internalType": "uint256",
          "name": "specID",
          "type": "uint256"
        },
        {
          "internalType": "uint256[]",
          "name": "beforeJunction",
          "type": "uint256[]"
        },
        {
          "internalType": "uint256[]",
          "name": "afterJunction",
          "type": "uint256[]"
        },
        {
          "internalType": "string[]",
          "name": "category",
          "type": "string[]"
        }
      ],
      "name": "addSplines",
      "outputs": [],
      "stateMutability": "nonpayable",
      "type": "function"
    },
    {
      "inputs": [
        {
          "internalType": "uint256",
          "name": "specID",
          "type": "uint256"
        },
        {
          "internalType": "string[]",
          "name": "userCategories",
          "type": "string[]"
        },
        {
          "internalType": "bytes[]",
          "name": "userPayloads",
          "type": "bytes[]"
        }
      ],
      "name": "createProject",
      "outputs": [],
      "stateMutability": "nonpayable",
      "type": "function"
    },
    {
      "inputs": [
        {
          "internalType": "string",
          "name": "_url",
          "type": "string"
        },
        {
          "internalType": "address[]",
          "name": "_categoriesAddresses",
          "type": "address[]"
        },
        {
          "internalType": "string[]",
          "name": "_categoryNames",
          "type": "string[]"
        },
        {
          "internalType": "string[]",
          "name": "_resourceNames",
          "type": "string[]"
        },
        {
          "internalType": "address[]",
          "name": "_resources",
          "type": "address[]"
        },
        {
          "internalType": "uint256",
          "name": "_splinesAmount",
          "type": "uint256"
        }
      ],
      "name": "createSpecification",
      "outputs": [],
      "stateMutability": "nonpayable",
      "type": "function"
    },
    {
      "inputs": [],
      "name": "diffResourceConverter",
      "outputs": [
        {
          "internalType": "contract ResourceConverter",
          "name": "",
          "type": "address"
        }
      ],
      "stateMutability": "view",
      "type": "function"
    },
    {
      "inputs": [
        {
          "internalType": "uint256",
          "name": "specID",
          "type": "uint256"
        },
        {
          "internalType": "uint256",
          "name": "splineID",
          "type": "uint256"
        }
      ],
      "name": "getCategory",
      "outputs": [
        {
          "internalType": "string",
          "name": "",
          "type": "string"
        }
      ],
      "stateMutability": "view",
      "type": "function"
    },
    {
      "inputs": [
        {
          "internalType": "uint256",
          "name": "specID",
          "type": "uint256"
        },
        {
          "internalType": "uint256",
          "name": "splineID",
          "type": "uint256"
        }
      ],
      "name": "getCategoryContract",
      "outputs": [
        {
          "internalType": "contract Category",
          "name": "",
          "type": "address"
        }
      ],
      "stateMutability": "view",
      "type": "function"
    },
    {
      "inputs": [
        {
          "internalType": "string",
          "name": "resourceName",
          "type": "string"
        }
      ],
      "name": "getProduct",
      "outputs": [
        {
          "internalType": "uint256",
          "name": "",
          "type": "uint256"
        },
        {
          "internalType": "uint256",
          "name": "",
          "type": "uint256"
        },
        {
          "internalType": "uint256",
          "name": "",
          "type": "uint256"
        }
      ],
      "stateMutability": "view",
      "type": "function"
    },
    {
      "inputs": [],
      "name": "getProductAmount",
      "outputs": [
        {
          "internalType": "uint256",
          "name": "",
          "type": "uint256"
        }
      ],
      "stateMutability": "view",
      "type": "function"
    },
    {
      "inputs": [
        {
          "internalType": "bytes32",
          "name": "role",
          "type": "bytes32"
        }
      ],
      "name": "getRoleAdmin",
      "outputs": [
        {
          "internalType": "bytes32",
          "name": "",
          "type": "bytes32"
        }
      ],
      "stateMutability": "view",
      "type": "function"
    },
    {
      "inputs": [
        {
          "internalType": "bytes32",
          "name": "role",
          "type": "bytes32"
        },
        {
          "internalType": "address",
          "name": "account",
          "type": "address"
        }
      ],
      "name": "grantRole",
      "outputs": [],
      "stateMutability": "nonpayable",
      "type": "function"
    },
    {
      "inputs": [
        {
          "internalType": "bytes32",
          "name": "role",
          "type": "bytes32"
        },
        {
          "internalType": "address",
          "name": "account",
          "type": "address"
        }
      ],
      "name": "hasRole",
      "outputs": [
        {
          "internalType": "bool",
          "name": "",
          "type": "bool"
        }
      ],
      "stateMutability": "view",
      "type": "function"
    },
    {
      "inputs": [
        {
          "internalType": "uint256",
          "name": "specID",
          "type": "uint256"
        },
        {
          "internalType": "uint256",
          "name": "projectID",
          "type": "uint256"
        },
        {
          "internalType": "bytes",
          "name": "payload",
          "type": "bytes"
        }
      ],
      "name": "hyperpay",
      "outputs": [],
      "stateMutability": "nonpayable",
      "type": "function"
    },
    {
      "inputs": [],
      "name": "initialize",
      "outputs": [],
      "stateMutability": "nonpayable",
      "type": "function"
    },
    {
      "inputs": [
        {
          "internalType": "uint256",
          "name": "specID",
          "type": "uint256"
        }
      ],
      "name": "projectCounter",
      "outputs": [
        {
          "internalType": "uint256",
          "name": "",
          "type": "uint256"
        }
      ],
      "stateMutability": "view",
      "type": "function"
    },
    {
      "inputs": [
        {
          "internalType": "bytes32",
          "name": "role",
          "type": "bytes32"
        },
        {
          "internalType": "address",
          "name": "callerConfirmation",
          "type": "address"
        }
      ],
      "name": "renounceRole",
      "outputs": [],
      "stateMutability": "nonpayable",
      "type": "function"
    },
    {
      "inputs": [
        {
          "internalType": "bytes32",
          "name": "role",
          "type": "bytes32"
        },
        {
          "internalType": "address",
          "name": "account",
          "type": "address"
        }
      ],
      "name": "revokeRole",
      "outputs": [],
      "stateMutability": "nonpayable",
      "type": "function"
    },
    {
      "inputs": [
        {
          "internalType": "address",
          "name": "addr",
          "type": "address"
        }
      ],
      "name": "setDiffResourceConverter",
      "outputs": [],
      "stateMutability": "nonpayable",
      "type": "function"
    },
    {
      "inputs": [],
      "name": "specCounter",
      "outputs": [
        {
          "internalType": "uint256",
          "name": "",
          "type": "uint256"
        }
      ],
      "stateMutability": "view",
      "type": "function"
    },
    {
      "inputs": [
        {
          "internalType": "uint256",
          "name": "",
          "type": "uint256"
        }
      ],
      "name": "specs",
      "outputs": [
        {
          "internalType": "string",
          "name": "url",
          "type": "string"
        },
        {
          "internalType": "uint256",
          "name": "projectCounter",
          "type": "uint256"
        },
        {
          "internalType": "uint256",
          "name": "splineCounter",
          "type": "uint256"
        }
      ],
      "stateMutability": "view",
      "type": "function"
    },
    {
      "inputs": [
        {
          "internalType": "string",
          "name": "resourceName",
          "type": "string"
        },
        {
          "internalType": "uint256",
          "name": "resourceAmount",
          "type": "uint256"
        }
      ],
      "name": "storeInitialProduct",
      "outputs": [],
      "stateMutability": "nonpayable",
      "type": "function"
    },
    {
      "inputs": [
        {
          "internalType": "string",
          "name": "resourceName",
          "type": "string"
        },
        {
          "internalType": "uint256",
          "name": "resourceAmount",
          "type": "uint256"
        },
        {
          "internalType": "uint256",
          "name": "leftPercentage",
          "type": "uint256"
        },
        {
          "internalType": "uint256",
          "name": "perPercentage",
          "type": "uint256"
        }
      ],
      "name": "storeProduct",
      "outputs": [],
      "stateMutability": "nonpayable",
      "type": "function"
    },
    {
      "inputs": [
        {
          "internalType": "bytes4",
          "name": "interfaceId",
          "type": "bytes4"
        }
      ],
      "name": "supportsInterface",
      "outputs": [
        {
          "internalType": "bool",
          "name": "",
          "type": "bool"
        }
      ],
      "stateMutability": "view",
      "type": "function"
    },
    {
      "inputs": [
        {
          "internalType": "string",
          "name": "resourceName",
          "type": "string"
        }
      ],
      "name": "takeProduct",
      "outputs": [
        {
          "internalType": "uint256",
          "name": "",
          "type": "uint256"
        },
        {
          "internalType": "uint256",
          "name": "",
          "type": "uint256"
        },
        {
          "internalType": "uint256",
          "name": "",
          "type": "uint256"
        }
      ],
      "stateMutability": "nonpayable",
      "type": "function"
    }
  ],
  "bytecode": "0x6080604052348015600f57600080fd5b50612a8d8061001f6000396000f3fe608060405234801561001057600080fd5b50600436106101da5760003560e01c806375ff5baf1161010457806399178222116100a2578063d547741f11610071578063d547741f14610416578063ec87621c14610429578063ee60a6931461043e578063fdab474d1461045157600080fd5b806399178222146103e0578063a217fddf146103f3578063a80c90b5146103fb578063ccedd32a1461040e57600080fd5b806383bc248e116100de57806383bc248e146103805780638adbddb01461039357806391d14854146103ba578063980b528e146103cd57600080fd5b806375ff5baf146103435780637cb5f263146103565780638129fc1c1461037857600080fd5b80632f2ff15d1161017c57806350b9402a1161014b57806350b9402a146102e7578063543fd5b4146102fa57806368111cce1461030257806372da37091461033057600080fd5b80632f2ff15d1461028157806331f7d9641461029457806336568abe146102b45780634edbca6e146102c757600080fd5b806318cf2834116101b857806318cf28341461022f57806321ffdae914610252578063248a9ca314610265578063288222b01461027857600080fd5b806301ffc9a7146101df578063027813471461020757806305b17bd71461021c575b600080fd5b6101f26101ed366004611da6565b610474565b60405190151581526020015b60405180910390f35b61021a610215366004611e22565b6104ab565b005b61021a61022a366004611f10565b6105bb565b6102446000805160206129f883398151915281565b6040519081526020016101fe565b61021a610260366004611f62565b610683565b610244610273366004612072565b610894565b61024460035481565b61021a61028f3660046120a7565b6108b6565b61029c600281565b6040516001600160a01b0390911681526020016101fe565b61021a6102c23660046120a7565b6108d8565b6102da6102d53660046120d3565b610910565b6040516101fe9190612145565b61021a6102f536600461221b565b6109c6565b600154610244565b61031561031036600461225f565b6109f9565b604080519384526020840192909252908201526060016101fe565b61021a61033e366004612293565b610aa0565b61031561035136600461225f565b610cde565b610369610364366004612072565b610f41565b6040516101fe93929190612310565b61021a610feb565b60025461029c906001600160a01b031681565b6102447ffc24bd2866d4f21a3c7a09cde981207397f26e9f9fadb9875868f03c1c5228ee81565b6101f26103c83660046120a7565b611144565b61021a6103db366004612335565b61117c565b61021a6103ee366004611e22565b6111b7565b610244600081565b61029c6104093660046120d3565b611329565b61029c600181565b61021a6104243660046120a7565b6113da565b610244600080516020612a1883398151915281565b61021a61044c366004612350565b6113f6565b61024461045f366004612072565b60009081526004602052604090206001015490565b60006001600160e01b03198216637965db0b60e01b14806104a557506301ffc9a760e01b6001600160e01b03198316145b92915050565b600080516020612a188339815191526104c3816114ef565b600088815260046020526040812060020154905b818110156105af578888828181106104f1576104f16123a3565b60008d81526004602090815260408083208784526003018252909120910292909201359091555086868281811061052a5761052a6123a3565b60008d815260046020908152604080832087845260030182529091209102929092013560019092019190915550848482818110610569576105696123a3565b905060200281019061057b91906123b9565b60008c81526004602090815260408083208684526003019091529020600501916105a6919083612495565b506001016104d7565b50505050505050505050565b6000805160206129f88339815191526105d3816114ef565b60006105e0866000611329565b9050600080826001600160a01b031663657ec4a3898989896040518563ffffffff1660e01b81526004016106179493929190612577565b6000604051808303816000875af1158015610636573d6000803e3d6000fd5b505050506040513d6000823e601f3d908101601f1916820160405261065e91908101906125a1565b9150915061066c82826109c6565b61067988886001806114fc565b5050505050505050565b600080516020612a1883398151915261069b816114ef565b600380549060006106ab83612637565b909155505060035460009081526004602052604090206106cc8c8e83612495565b5060035460009081526004602052604081206002018390555b83811015610791578484828181106106ff576106ff6123a3565b90506020020160208101906107149190612335565b600354600090815260046020526040902060050188888481811061073a5761073a6123a3565b905060200281019061074c91906123b9565b60405161075a929190612650565b90815260405190819003602001902080546001600160a01b03929092166001600160a01b03199092169190911790556001016106e5565b5060005b87811015610842578a8a828181106107af576107af6123a3565b90506020020160208101906107c49190612335565b6003546000908152600460208190526040909120018a8a848181106107eb576107eb6123a3565b90506020028101906107fd91906123b9565b60405161080b929190612650565b90815260405190819003602001902080546001600160a01b03929092166001600160a01b0319909216919091179055600101610795565b506003546040517f3b07f2cc27e813e991f5d376f90e77820ea9adb33a8f6f2a03a5598a840603399161087e918f908f908c9089908990612660565b60405180910390a1505050505050505050505050565b6000908152600080516020612a38833981519152602052604090206001015490565b6108bf82610894565b6108c8816114ef565b6108d28383611874565b50505050565b6001600160a01b03811633146109015760405163334bd91960e11b815260040160405180910390fd5b61090b8282611919565b505050565b600082815260046020908152604080832084845260030190915281206005018054606092919061093f906123ff565b80601f016020809104026020016040519081016040528092919081815260200182805461096b906123ff565b80156109b85780601f1061098d576101008083540402835291602001916109b8565b820191906000526020600020905b81548152906001019060200180831161099b57829003601f168201915b509398975050505050505050565b620f42406000816109e18469021e19e0c9bab2400000612698565b6109eb91906126af565b90506108d2848484846113f6565b600080600080600085604051610a0f91906126d1565b908152604080516020928190038301812060608201835280548252600181015493820184905260020154918101919091529150610a875760405162461bcd60e51b8152602060048201526011602482015270141c9bd91d58dd081b9bdd08199bdd5b99607a1b60448201526064015b60405180910390fd5b8051602082015160409092015190969195509350915050565b6000805160206129f8833981519152610ab8816114ef565b6000868152600460205260408120600190810154610ad5916126ed565b905060005b85811015610c86576000888152600460208190526040822001888884818110610b0557610b056123a3565b9050602002810190610b1791906123b9565b604051610b25929190612650565b908152604051908190036020019020546001600160a01b0316905080610b835760405162461bcd60e51b815260206004820152601360248201527210d85d1959dbdc9e481a5cc81a5b9d985b1a59606a1b6044820152606401610a7e565b806001600160a01b03811663ca68ec868b868a8a88818110610ba757610ba76123a3565b9050602002810190610bb991906123b9565b6040518563ffffffff1660e01b8152600401610bd89493929190612577565b6020604051808303816000875af1158015610bf7573d6000803e3d6000fd5b505050506040513d601f19601f82011682018060405250810190610c1b9190612700565b610c7c5760405162461bcd60e51b815260206004820152602c60248201527f4661696c656420746f207265676973746572207573657220696e20636174656760448201526b1bdc9e4818dbdb9d1c9858dd60a21b6064820152608401610a7e565b5050600101610ada565b5060008781526004602090815260409182902060010183905581518981529081018390527fd352c713b7ccb54580d3d039be32fcbaa69e1326b710f63f54e72f01d658f4ae910160405180910390a150505050505050565b600080600080600085604051610cf491906126d1565b90815260200160405180910390206001015411610d5e5760405162461bcd60e51b815260206004820152602260248201527f50726f64756374206e6f7420666f756e64206f7220616c72656164792074616b60448201526132b760f11b6064820152608401610a7e565b60008085604051610d6f91906126d1565b90815260408051918290036020908101832060608401835280548452600181015491840191909152600201548282015251909150600090610db19087906126d1565b9081526040519081900360200190206000808255600182018190556002909101819055805b600154811015610ef75773__$7481ba9d958a8dd8ef3f2e538c165f711b$__6346bdca9a60018381548110610e0d57610e0d6123a3565b90600052602060002001896040518363ffffffff1660e01b8152600401610e35929190612722565b602060405180830381865af4158015610e52573d6000803e3d6000fd5b505050506040513d601f19601f82011682018060405250810190610e769190612700565b15610e8057600191505b818015610e99575060018054610e9691906127c1565b81105b15610eef576001610eaa82826126ed565b81548110610eba57610eba6123a3565b9060005260206000200160018281548110610ed757610ed76123a3565b906000526020600020019081610eed91906127d4565b505b600101610dd6565b506001805480610f0957610f096128aa565b600190038181906000526020600020016000610f259190611d58565b9055508051602082015160409092015190969195509350915050565b600460205260009081526040902080548190610f5c906123ff565b80601f0160208091040260200160405190810160405280929190818152602001828054610f88906123ff565b8015610fd55780601f10610faa57610100808354040283529160200191610fd5565b820191906000526020600020905b815481529060010190602001808311610fb857829003601f168201915b5050505050908060010154908060020154905083565b6000610ff5611995565b805490915060ff600160401b82041615906001600160401b031660008115801561101c5750825b90506000826001600160401b031660011480156110385750303b155b905081158015611046575080155b156110645760405163f92ee8a960e01b815260040160405180910390fd5b845467ffffffffffffffff19166001178555831561108e57845460ff60401b1916600160401b1785555b611099600033611874565b506110c47ffc24bd2866d4f21a3c7a09cde981207397f26e9f9fadb9875868f03c1c5228ee33611874565b506110dd6000805160206129f883398151915233611874565b506110f6600080516020612a1883398151915233611874565b50831561113d57845460ff60401b19168555604051600181527fc7f505b2f371ae2175ee4913f4499e1f2633a7b5936321eed1cdaeb6115181d29060200160405180910390a15b5050505050565b6000918252600080516020612a38833981519152602090815260408084206001600160a01b0393909316845291905290205460ff1690565b600080516020612a18833981519152611194816114ef565b50600280546001600160a01b0319166001600160a01b0392909216919091179055565b600080516020612a188339815191526111cf816114ef565b600088815260046020526040812060020154905b818110156105af5760405180606001604052808a8a84818110611208576112086123a3565b905060200281019061121a91906123b9565b8080601f016020809104026020016040519081016040528093929190818152602001838380828437600092019190915250505090825250602001888884818110611266576112666123a3565b905060200281019061127891906123b9565b8080601f0160208091040260200160405190810160405280939291908181526020018383808284376000920191909152505050908252506020018686848181106112c4576112c46123a3565b6020908102929092013590925260008d81526004825260408082208683526003019092522082516002909101915081906112fe90826128c0565b506020820151600182019061131390826128c0565b50604091909101516002909101556001016111e3565b6000806113368484610910565b90506000600460008681526020019081526020016000206004018260405161135e91906126d1565b908152604051908190036020019020546001600160a01b03169050806113d25760405162461bcd60e51b8152602060048201526024808201527f43617465676f727920636f6e74726163742061646472657373206973206e6f74604482015263081cd95d60e21b6064820152608401610a7e565b949350505050565b6113e382610894565b6113ec816114ef565b6108d28383611919565b60008460405161140691906126d1565b9081526020016040518091039020600101546000146114605760405162461bcd60e51b815260206004820152601660248201527550726f6475637420616c72656164792065786973747360501b6044820152606401610a7e565b60405180606001604052808481526020018381526020018281525060008560405161148b91906126d1565b90815260408051602092819003830190208351815591830151600180840191909155920151600290910155805480820182556000919091527fb10e2d527612073b26eecdfd717e6a320cf44b4afac2b0732d9fcbe2b7fa0cf60161113d85826128c0565b6114f981336119be565b50565b6000848152600460209081526040808320858452600301909152908190208151606081019092526002810180549192611662928892908290829061153f906123ff565b80601f016020809104026020016040519081016040528092919081815260200182805461156b906123ff565b80156115b85780601f1061158d576101008083540402835291602001916115b8565b820191906000526020600020905b81548152906001019060200180831161159b57829003601f168201915b505050505081526020016001820180546115d1906123ff565b80601f01602080910402602001604051908101604052809291908181526020018280546115fd906123ff565b801561164a5780601f1061161f5761010080835404028352916020019161164a565b820191906000526020600020905b81548152906001019060200180831161162d57829003601f168201915b505050505081526020016002820154815250506119fb565b8054156116855761168585858360000154858061167e90612637565b96506114fc565b600061171f82600201600101805461169c906123ff565b80601f01602080910402602001604051908101604052809291908181526020018280546116c8906123ff565b80156117155780601f106116ea57610100808354040283529160200191611715565b820191906000526020600020905b8154815290600101906020018083116116f857829003601f168201915b5050505050610cde565b50509050600061172f8786611329565b905061177e8183600460008b8152602001908152602001600020600501866002016001016040516117609190612969565b908152604051908190036020019020546001600160a01b0316611c7a565b806001600160a01b0316636c13e06588888888600460008e8152602001908152602001600020600501896002016001016040516117bb9190612969565b908152604051908190036020018120546001600160e01b031960e088901b16825260048201959095526024810193909352604483019190915260648201526001600160a01b03909116608482015260a4810185905260c401600060405180830381600087803b15801561182d57600080fd5b505af1158015611841573d6000803e3d6000fd5b5050505060018301541561186b5761186b87878560010154878061186490612637565b98506114fc565b50505050505050565b6000600080516020612a3883398151915261188f8484611144565b61190f576000848152602082815260408083206001600160a01b03871684529091529020805460ff191660011790556118c53390565b6001600160a01b0316836001600160a01b0316857f2f8788117e7eff1d82e926ec794901d17c78024a50270940304540a733656f0d60405160405180910390a460019150506104a5565b60009150506104a5565b6000600080516020612a388339815191526119348484611144565b1561190f576000848152602082815260408083206001600160a01b0387168085529252808320805460ff1916905551339287917ff6391f5c32d9c69d2a47ea670b442974b53935d1edc7fd64eb21e047a839171b9190a460019150506104a5565b6000807ff0c57e16840df040f15088dc2f81fe391c3923bec73e23a9662efc9c229c6a006104a5565b6119c88282611144565b6119f75760405163e2517d3f60e01b81526001600160a01b038216600482015260248101839052604401610a7e565b5050565b6000806000611a0d8460000151610cde565b9250925092508360400151821015611a735760405162461bcd60e51b815260206004820152602360248201527f4e6f7420656e6f756768207265736f75726365206c65667420746f20636f6e76604482015262195c9d60ea1b6064820152608401610a7e565b6000612710828660400151611a889190612698565b611a9291906126af565b9050611aa6670de0b6b3a7640000826126af565b611ab090856127c1565b9350846040015183611ac291906127c1565b92508215611ad8578451611ad8908585856113f6565b60008681526004602052604080822087519151600590910191611afa916126d1565b90815260408051602092819003830181205460008b815260048552928320938a01516001600160a01b039091169450919260050191611b38916126d1565b908152604051908190036020019020546001600160a01b03908116915082168114611c50576002546001600160a01b0316611bad5760405162461bcd60e51b8152602060048201526015602482015274283632b0b9b2961039b2ba1031b7b73b32b93a32b960591b6044820152606401610a7e565b6002546001600160a01b031663b66102df611bc9600a866126af565b611bd4906012612698565b6040516001600160e01b031960e084901b16815260048101919091526001600160a01b038086166024830152841660448201526064016020604051808303816000875af1158015611c29573d6000803e3d6000fd5b505050506040513d601f19601f82011682018060405250810190611c4d91906129de565b92505b602087015161067990611c6b670de0b6b3a7640000866126af565b620f424061044c6064886126af565b6001196001600160a01b03821601611cd45760405162461bcd60e51b815260206004820152601f60248201527f4e617469766520746f6b656e73206e6f7420737570706f7274656420796574006044820152606401610a7e565b6001600160a01b03811660011461090b5760405163a9059cbb60e01b81526001600160a01b0384811660048301526024820184905282169063a9059cbb906044016020604051808303816000875af1158015611d34573d6000803e3d6000fd5b505050506040513d601f19601f820116820180604052508101906108d29190612700565b508054611d64906123ff565b6000825580601f10611d74575050565b601f0160209004906000526020600020908101906114f991905b80821115611da25760008155600101611d8e565b5090565b600060208284031215611db857600080fd5b81356001600160e01b031981168114611dd057600080fd5b9392505050565b60008083601f840112611de957600080fd5b5081356001600160401b03811115611e0057600080fd5b6020830191508360208260051b8501011115611e1b57600080fd5b9250929050565b60008060008060008060006080888a031215611e3d57600080fd5b8735965060208801356001600160401b03811115611e5a57600080fd5b611e668a828b01611dd7565b90975095505060408801356001600160401b03811115611e8557600080fd5b611e918a828b01611dd7565b90955093505060608801356001600160401b03811115611eb057600080fd5b611ebc8a828b01611dd7565b989b979a50959850939692959293505050565b60008083601f840112611ee157600080fd5b5081356001600160401b03811115611ef857600080fd5b602083019150836020828501011115611e1b57600080fd5b60008060008060608587031215611f2657600080fd5b843593506020850135925060408501356001600160401b03811115611f4a57600080fd5b611f5687828801611ecf565b95989497509550505050565b600080600080600080600080600080600060c08c8e031215611f8357600080fd5b8b356001600160401b03811115611f9957600080fd5b611fa58e828f01611ecf565b909c509a505060208c01356001600160401b03811115611fc457600080fd5b611fd08e828f01611dd7565b909a5098505060408c01356001600160401b03811115611fef57600080fd5b611ffb8e828f01611dd7565b90985096505060608c01356001600160401b0381111561201a57600080fd5b6120268e828f01611dd7565b90965094505060808c01356001600160401b0381111561204557600080fd5b6120518e828f01611dd7565b9c9f9b9e50999c989b979a969995989497959660a090950135949350505050565b60006020828403121561208457600080fd5b5035919050565b80356001600160a01b03811681146120a257600080fd5b919050565b600080604083850312156120ba57600080fd5b823591506120ca6020840161208b565b90509250929050565b600080604083850312156120e657600080fd5b50508035926020909101359150565b60005b838110156121105781810151838201526020016120f8565b50506000910152565b600081518084526121318160208601602086016120f5565b601f01601f19169290920160200192915050565b602081526000611dd06020830184612119565b634e487b7160e01b600052604160045260246000fd5b604051601f8201601f191681016001600160401b038111828210171561219657612196612158565b604052919050565b60006001600160401b038211156121b7576121b7612158565b50601f01601f191660200190565b600082601f8301126121d657600080fd5b81356121e96121e48261219e565b61216e565b8181528460208386010111156121fe57600080fd5b816020850160208301376000918101602001919091529392505050565b6000806040838503121561222e57600080fd5b82356001600160401b0381111561224457600080fd5b612250858286016121c5565b95602094909401359450505050565b60006020828403121561227157600080fd5b81356001600160401b0381111561228757600080fd5b6113d2848285016121c5565b6000806000806000606086880312156122ab57600080fd5b8535945060208601356001600160401b038111156122c857600080fd5b6122d488828901611dd7565b90955093505060408601356001600160401b038111156122f357600080fd5b6122ff88828901611dd7565b969995985093965092949392505050565b6060815260006123236060830186612119565b60208301949094525060400152919050565b60006020828403121561234757600080fd5b611dd08261208b565b6000806000806080858703121561236657600080fd5b84356001600160401b0381111561237c57600080fd5b612388878288016121c5565b97602087013597506040870135966060013595509350505050565b634e487b7160e01b600052603260045260246000fd5b6000808335601e198436030181126123d057600080fd5b8301803591506001600160401b038211156123ea57600080fd5b602001915036819003821315611e1b57600080fd5b600181811c9082168061241357607f821691505b60208210810361243357634e487b7160e01b600052602260045260246000fd5b50919050565b601f82111561090b57806000526020600020601f840160051c810160208510156124605750805b601f840160051c820191505b8181101561113d576000815560010161246c565b600019600383901b1c191660019190911b1790565b6001600160401b038311156124ac576124ac612158565b6124c0836124ba83546123ff565b83612439565b6000601f8411600181146124ee57600085156124dc5750838201355b6124e68682612480565b84555061113d565b600083815260209020601f19861690835b8281101561251f57868501358255602094850194600190920191016124ff565b508682101561253c5760001960f88860031b161c19848701351681555b505060018560011b0183555050505050565b81835281816020850137506000828201602090810191909152601f909101601f19169091010190565b84815283602082015260606040820152600061259760608301848661254e565b9695505050505050565b600080604083850312156125b457600080fd5b82516001600160401b038111156125ca57600080fd5b8301601f810185136125db57600080fd5b80516125e96121e48261219e565b8181528660208385010111156125fe57600080fd5b61260f8260208301602086016120f5565b60209590950151949694955050505050565b634e487b7160e01b600052601160045260246000fd5b60006001820161264957612649612621565b5060010190565b8183823760009101908152919050565b86815260a06020820152600061267a60a08301878961254e565b60408301959095525060608101929092526080909101529392505050565b80820281158282048414176104a5576104a5612621565b6000826126cc57634e487b7160e01b600052601260045260246000fd5b500490565b600082516126e38184602087016120f5565b9190910192915050565b808201808211156104a5576104a5612621565b60006020828403121561271257600080fd5b81518015158114611dd057600080fd5b604081526000808454612734816123ff565b8060408601526001821660008114612753576001811461276f576127a3565b60ff1983166060870152606082151560051b87010193506127a3565b87600052602060002060005b8381101561279a5781548882016060015260019091019060200161277b565b87016060019450505b50505082810360208401526127b88185612119565b95945050505050565b818103818111156104a5576104a5612621565b8181036127df575050565b6127e982546123ff565b6001600160401b0381111561280057612800612158565b6128148161280e84546123ff565b84612439565b6000601f82116001811461284257600083156128305750848201545b61283a8482612480565b85555061113d565b600085815260209020601f19841690600086815260209020845b8381101561287c578286015482556001958601959091019060200161285c565b508583101561289a5781850154600019600388901b60f8161c191681555b5050505050600190811b01905550565b634e487b7160e01b600052603160045260246000fd5b81516001600160401b038111156128d9576128d9612158565b6128e78161280e84546123ff565b6020601f82116001811461290c576000831561283057508482015161283a8482612480565b600084815260208120601f198516915b8281101561293c578785015182556020948501946001909201910161291c565b508482101561295a5786840151600019600387901b60f8161c191681555b50505050600190811b01905550565b6000808354612977816123ff565b60018216801561298e57600181146129a3576129d3565b60ff19831686528115158202860193506129d3565b86600052602060002060005b838110156129cb578154888201526001909101906020016129af565b505081860193505b509195945050505050565b6000602082840312156129f057600080fd5b505191905056fea8a7bc421f721cb936ea99efdad79237e6ee0b871a2a08cf648691f9584cdc77241ecf16d79d0f8dbfb92cbc07fe17840425976cf0667f022fe9877caa831b0802dd7bc7dec4dceedda775e58dd541e08a116c6c53815c0bd028192f7b626800a2646970667358221220330f510ddccfd213fb90894ff106dae260d962078b272a17e2a0e604f9c9983464736f6c634300081c0033",
  "linkReferences": {
    "contracts/StringUtils.sol": {
      "StringUtils": [
        {
          "length": 20,
          "start": 3585
        }
      ]
    }
  },
  "deployedLinkReferences": {
    "contracts/StringUtils.sol": {
      "StringUtils": [
        {
          "length": 20,
          "start": 3554
        }
      ]
    }
  }
}